S013000068656C6C6F5F776F726C642E7372656376
S1130000B002002055210000152200001922000032
S113001000000000000000000000000000000000DC
S11300200000000000000000000000001D2200008D
S11300300000000000000000212200002522000032
S1130040292200002D220000312200003522000068
S1130050392200003D220000412200004522000018
S1130060492200004D2200005122000055220000C8
S1130070591F00005D22000061220000652200007B
S1130080692200006D220000712200007522000028
S1130090792200007D2200008122000085220000D8
S11300A0892200008D220000912200009522000088
S11300B0992200009D220000A1220000A522000038
S1130400FFFFFFFFFFFFFFFFFFFFFFFFFE3DFFFFBB
S113041038B50C000021002500E0491C534A042390
S11304204B43D25C182A0AD0504A04234B43D25C73
S1130430C0B28242F1D14D48042251434518002DE7
S113044001D101201CE06878002807D02100A87899
S113045000F02DF8002804D0012011E000F0E6F9A6
S113046020606946E87800F0D4FA002807D12068B3
S11304700099491C00F027FB2060002000E00420C4
S113048032BD80B5D2B2C9B2394BC0B2185C00F0EB
S11304902BFA002801D1002000E0022002BD80B523
S11304A0344AC0B2105CC0B200F001F802BD10B50D
S11304B00C00C0B20100002905294CD9891F1AD0AB
S11304C0491E1DD0491E1ED0491E1FD0491E20D0D2
S11304D0491E22D0491E23D0091F25D0491E27D0EA
S11304E0491E29D0491E2AD0491E2BD0491E2CD082
S11304F0491E2DD034E0802000022060002010BD71
S1130500A8482060FAE7A8482060F7E7A7482060D9
S1130510F4E7802000022060F0E701202060EDE78E
S1130520FA2080002060E9E700F080F92060E5E728
S113053000F06BF92060E1E79D482060DEE79D480C
S11305402060DBE79C482060D8E79C482060D5E722
S11305509B482060D2E72100C0B2FFF759FFCEE7E5
S1130560984820600120CAE70000000080210000B4
S11305702C00002000000020F2B584B00700002009
S1130580029000200190002500240026FFB2132FC2
S113059007DBA02252008C498C4800F0ECFA00F0F2
S11305A0E9FA8B48FFB2C55DEDB22800002804D0FB
S11305B0032804D0062804D005E00E2503E00F2507
S11305C001E00C25FFE700A9491C2800C0B200F097
S11305D0EDF9002801D00320E2E07E48EDB20421C9
S11305E04D434559002D01D10320D9E06846407898
S11305F00421484328184078002846D069466846B4
S1130600407804225043285C00F0D0F9002801D03F
S11306100320C5E06F486946497804225143695C68
S1130620042251434458002C01D10320B8E0684609
S11306300078042148432018407800281FD000A9DE
S1130640891C6846007804225043205C00F0AEF90F
S1130650002801D00320A3E05E48694609780422FB
S11306605143615C042251434658002E01D10320BA
S113067096E06846807804214843305C0AE0684686
S1130680007804214843205C04E068464078042153
S11306904843285C0499C0B2FFF709FF002801D041
S11306A001207DE06846407804214843281880787A
S11306B000281CD068464078042148432818C07894
S11306C0C0B2052849D007283ED009284ED00B28AF
S11306D031D00D2802D00E2851D055E001A90D20AB
S11306E000F097F902A90C2000F093F94CE0002CDB
S11306F00ED06846007804214843201880780028EA
S113070006D068460078042148432018C078D7E70B
S1130710002E0ED068468078042148433018807833
S1130720002806D068468078042148433018C078F1
S1130730C6E7002034E001A90B2000F06AF902A901
S11307400A2000F066F91FE001A9072000F061F912
S113075002A9062000F05DF916E001A9052000F0C9
S113076058F902A9042000F054F90DE001A9092068
S113077000F04FF902A9082000F04BF904E001A9A8
S11307800E2000F046F9FFE7049800680299491C1E
S113079048430199491C00F096F904990860002027
S11307A005B0F0BD8038010081380100006CDC0226
S11307B0672B0000CE560000358200003682000010
S11307C09CAD000003D90000A01D0000E020000043
S11307D018000020540000202C480078C0B2704754
S11307E02B480078C0B270472A480078C0B27047DE
S11307F029480078C0B2704780B5FFF7F1FF01289F
S113080001D1274800E0274802BD38B5FFF7ECFFC7
S11308100500FFF7EDFF0400FFF7EEFF0121A940FB
S11308200122A240514300F04EF932BD10B500241C
S1130830FFF7D2FF002802D1184C200010BDFFF7AB
S1130840CBFF012818D1FFF7CBFF012809D10124E0
S1130850FFF7CAFF84402100114800F031F9040079
S1130860EBE701210C00FFF7BFFF210081400D4899
S113087000F026F90400E0E7FFF7AEFF022802D1FA
S113088080242402D9E72000D8E7000000400E535A
S1130890014006500840965018401650006CDC0287
S11308A000127A0080841E0010B5002200E0521C61
S11308B06C4B0C2454431B5D282B13D0694B0C2424
S11308C054431B5DC0B28342F1D1664B0C245443A4
S11308D01B195B78C9B28B42E9D162480C214A43A7
S11308E0801800E0002010BD70B505000E00140053
S11308F00020EDB2282D06DB54225B495B4800F052
S11309003AF900F037F93100C9B22800C0B2FFF754
S1130910CBFF002811D0E4B2002C06D0416809684E
S113092082680A434068026005E041680968826899
S1130930914340680160002000E0022070BD70B562
S113094006000C000025F6B2132E06DB9E22464953
S1130950474800F010F900F00DF9F6B2092E08D05E
S11309600A2E0BD00B2E0ED0112E11D0122E14D015
S113097018E0E4B2A0063F49086014E0E4B220069F
S11309803D4908600FE0E4B2A0043C4908600AE075
S1130990E4B260013A49086005E0E4B22001394953
S11309A0086000E003252800C0B270BD70B50600E1
S11309B00C000025F6B2132E07DB902252002A49C0
S11309C02B4800F0D8F800F0D5F8F6B2092E08D07C
S11309D00A2E0AD00B2E0CD0112E0ED0122E10D0AF
S11309E013E024480068207010E023480068207059
S11309F00CE022480068207008E02148006820705C
S1130A0004E020480068207000E003252800C0B2FC
S1130A1070BD70B506000D000024F6B20F2E07DB82
S1130A20862292001049184800F0A5F800F0A2F8B8
S1130A3000202860F6B2002E04D0032E06D00E2E1D
S1130A4008D00AE011480068286007E010480068F0
S1130A50286003E00120286000E004242000C0B2E4
S1130A6070BD000028180000981E000050200000EF
S1130A707420000004800C5D04800C5C00700C5930
S1130A8004809452048004529820000044801C5E28
S1130A9044801458F446002804D4494200F013F862
S1130AA0404260474042002905D45FD000F00BF873
S1130AB0404249426047494200F005F849426047D4
S1130AC003460B43E6D40022030A8B420BD20309EC
S1130AD08B4219D243088B422ED2411A00D20146CE
S1130AE0524110467047FF2209023FD012068B4242
S1130AF005D3121209028B4201D31212090203090F
S1130B008B4219D300E0090AC3098B4201D3CB01FC
S1130B10C01A524183098B4201D38B01C01A52413E
S1130B2043098B4201D34B01C01A524103098B4242
S1130B3001D30B01C01A5241C3088B4201D3CB002D
S1130B40C01A524183088B4201D38B00C01A524110
S1130B5043088B4201D34B00C01A5241884200D350
S1130B60401A5241CFD201461046704708B500F0F2
S1130B7013F808BD704700B583B00091019202904C
S1130B806A4604491820ABBE002801D100F005F8DC
S1130B9003B000BD10100200704780B5012000F0C2
S1130BA001F801BD80B5C046C046024A11001820B4
S1130BB0ABBEFBE7260002000121C006C00E814047
S1130BC052480160704710B5040064B2002C06D589
S1130BD058224F494F48FFF7CEFFFFF7CBFF64B2CF
S1130BE0202C06DB59224A498948FFF7C4FFFFF746
S1130BF0C1FF200040B2FFF7DFFF10BD854A042388
S1130C005843115070477FB506000D0014000020B2
S1130C10002E01D010204AE001223100C9B2232065
S1130C20FFF72FFC2C210022280000F09DF92E60F4
S1130C3000212800243000F0C1F9002128002730C9
S1130C4000F0BCF920680290A07901A9887220798B
S1130C5001A908720398704901400391607901A9C0
S1130C60487203986D4901400391002E04D16946EE
S1130C700920FFF781FC03E069460320FFF70FFC1E
S1130C800098019001202A21685401A9300000F045
S1130C90E9F9C0B2002801D0C0B208E02900300050
S1130CA0FFF7ACFF5E488057FFF78DFF002004B0CC
S1130CB070BDF8B504000D0016001F00002D07D10B
S1130CC08122520057495848FFF755FFFFF752FF5A
S1130CD00020607132002900200000F01DF80C286B
S1130CE001D10C2011E0002539002000243000F04F
S1130CF075F9C0B20328F7D0C0B2002803D0200091
S1130D0000F04EF814252800C0B2F2BD00E100E066
S1130D101C1C00009421000070B504002668207992
S1130D20002801D00C2032E0A160E26000202061A4
S1130D30012020712A20255C300000F0F5FA0028FB
S1130D40FAD02800451EC0B200281CD0A068017843
S1130D50300000F0A3FBA068401CA060E068401EC7
S1130D60E0602069401C2061E0680028E9D120008F
S1130D7000F00EF86079002803D12434200000F03C
S1130D805FF9002003E0300000F0ACFB002070BDF0
S1130D9010B50400206800F0B4FB0020207110BDE1
S1130DA080B50179002901D10E2002E0FFF7F0FFA0
S1130DB0002002BDF8B504000D0016001F00002D30
S1130DC007D1FF22E83217491848FFF7D4FEFFF78E
S1130DD0D1FE0020607532002900200000F028F8C0
S1130DE00D2801D10D2011E0002539002000273005
S1130DF000F0F4F8C0B20328F7D0C0B2002803D042
S1130E00200000F036F814252800C0B2F2BD00001E
S1130E100C1F0000A4000020FFFFFFFEFFFFFFFDEA
S1130E20A0000020481E0000E0210000EC2100008A
S1130E3010B5037D002B01D00D200DE004680123C3
S1130E4003758161C26100210162200000F07EFB14
S1130E50200000F0ABFB002010BD38B5040025686D
S1130E60280000F083FB280000F0B4FB002020756C
S1130E7031BD80B5017D002901D10F2002E0FFF7CB
S1130E80ECFF002002BD70B504002668207900281C
S1130E9002D1207D002866D0300000F075FB0028C8
S1130EA027D0300000F052FA002819D0A169300090
S1130EB000F003FBA069401CA061E069401EE061F2
S1130EC0206A401C2062E069002809D12000FFF755
S1130ED0C4FF607D002803D12000273000F0B0F863
S1130EE0300000F045FA002803D00421300000F05F
S1130EF057FA300000F013FB002834D0300000F023
S1130F0013FA00282FD0E068002822D02A20255C7C
S1130F102800451EC0B2002825D0A0680178300002
S1130F2000F0BCFAA068401CA060E068401EE060CD
S1130F302069401C2061E0680028E9D12000FFF707
S1130F4027FF6079002803D12434200000F078F8CA
S1130F5009E02000FFF71CFF6079002803D1243446
S1130F60200000F06DF870BD1206130A1A43130C2A
S1130F701A4300BF094205D0830705D00270401C04
S1130F80491EF9D170470000130030B41400150055
S1130F90103902D310393CC0FCD2490700D30CC02D
S1130FA000D504C0890002D30280801C002900D52A
S1130FB0027030BC704700000022E5E738B5050038
S1130FC00C0000F034FBA870A878FF2801D10120A0
S1130FD003E06C7000202870002032BD70B504005E
S1130FE00E000325607800280AD000F07DFB6078AD
S1130FF0401E60700020207000F066FB00251CE09D
S1131000207800280CD0A07800F026FB002814D10A
S113101000F06AFB0020207000F056FB02250CE073
S11310200F48864209D000F05FFB0120207000F0D9
S11310304BFB3100A07800F02BFB2800C0B270BD40
S113104010B504006078FF2801D1012007E000F00A
S11310504BFB6078401C607000F036FB002010BD34
S1131060FFFFFF7F38B505000C00002D06D02F22AE
S11310708C498D48FFF77FFDFFF77CFD280000F0C9
S113108001F9280000F022F962682168280000F0C4
S11310902BF8002801D0012025E0A17A280000F0D7
S11310A081F8002801D003201DE0217A280000F0F7
S11310B095F8617A280000F0ADF8002801D00420EA
S11310C011E0A06802009201D20FA0680100C901DA
S11310D0C90F280000F0B0F8280000F0C1F828007B
S11310E000F0E4F8002032BDF2B582B0140000280C
S11310F006D06B226B496C48FFF73DFDFFF73AFDC4
S11311000425029821006943FFF7DDFC06000298DC
S11311102900B6B27143FFF7D6FC844202D2001B09
S1131120009001E0201A0090052709E0201A009998
S1131130814204D30090FFB23D00684686887F1C3C
S1131140FFB2212F12DA02982100FFB27943FFF790
S1131150BAFC694688800298FFB269468988794357
S1131160FFF7B1FC8442E1D2001BE0E720006421D8
S1131170FFF7A9FC032148430099814210D22800BB
S1131180001F042803D280208002584908606D1E85
S1131190280657490860B6B256480660002000E0A9
S11311A00220FEBD10B50C00002806D0E7223D4900
S11311B03D48FFF7E0FCFFF7DDFCE4B2022C04D16C
S11311C0802080054C49086006E0E4B220014B49C8
S11311D00860002048490860002010BD10B50C00CC
S11311E0002806D0FA222F492F48FFF7C4FCFFF746
S11311F0C1FCE4B2002C03D100204149086008E09E
S113120002203F490860E4B22000C007C00F3D49F6
S1131210086010BD10B50C00002807D0FF22123260
S113122020492148FFF7A7FCFFF7A4FCE4B26003C0
S113123035490860002010BD38B50D0014000028A1
S113124007D08E22520017491748FFF794FCFFF786
S113125091FC28072D49086020072D49086031BDFD
S113126080B5002807D0952252000E490E48FFF79A
S113127082FCFFF77FFC2748006880210903264A87
S1131280116001BD80B5002807D09F225200054996
S11312900548FFF770FCFFF76DFC00201E4908604D
S11312A001BD00008C1C0000641F000080B50028F4
S11312B007D0FF22523219491948FFF75CFCFFF7A7
S11312C059FC8020C0021749086001BD80B5002880
S11312D007D0FF225C3211491148FFF74CFCFFF79D
S11312E049FC00200F49086001BD000000408558FA
S11312F00040255C004065500040855E0840055272
S11313000840855008400550004085560440055E5D
S11313100840055E04400540084085598C1C0000C7
S1131320641F00000840055980B5002806D05522E6
S113133018491948FFF71FFCFFF71CFC1748006801
S11313400100C90D0800C007C00F02BD80B5002808
S113135006D067220F491048FFF70DFCFFF70AFC7F
S11313600E4800680100490D0800C007C00F02BD07
S113137080B5002806D0792206490748FFF7FBFB11
S1131380FFF7F8FB054800680100C90C0800C00716
S1131390C00F02BDF41D0000B41F0000044005404E
S11313A010B50C00002806D0CE2231493148FFF791
S11313B0E2FBFFF7DFFB0020E4B2002C18D0022C84
S11313C01AD017D3042C1ED018D3062C25D01FD323
S11313D0082C2CD026D30A2C33D02DD30C2C34D06B
S11313E031D30E2C35D032D3102C39D033D33CE04A
S11313F006203BE0062039E0062037E0802149033F
S11314001D4A116032E0802109031C4A11602DE05D
S11314108021C9021A4A116028E080218902194AF0
S1131420116023E080214902174A11601EE08021E7
S11314300906164A116019E08021C905144A116091
S113144014E0062012E0062010E006200EE006203C
S11314500CE006200AE0802109020E4A116005E032
S11314608021C9010C4A116000E00620C0B210BD01
S1131470F41D0000B41F00000440055A04408559BF
S11314800440055904408558044005580440855FCC
S11314900440055F044085570440055710B50C000F
S11314A0002806D02F220C490C48FFF764FBFFF7F5
S11314B061FBE4B20A48046010BD10B50C000028BA
S11314C006D0672204490548FFF755FBFFF752FB96
S11314D003480068207010BDE81C00008C1F000049
S11314E00C40054080B5002806D0982215491648BE
S11314F0FFF741FBFFF73EFB802000043F490860F3
S113150001BD80B5002806D0A1220E490E48FFF780
S113151032FBFFF72FFB00203849086001BD80B57E
S1131520002806D0AA2207490748FFF724FBFFF743
S113153021FB274800680100C90D0800C007C00F3F
S113154002BD0000441D0000DC1F000080B500281F
S113155006D0CE2227492848FFF70DFBFFF70AFBE8
S1131560802080032649086001BD000080B5002862
S113157006D0D7221F492048FFF7FDFAFFF7FAFAF1
S113158000201F49086001BD80B5002806D0E02274
S113159018491948FFF7EFFAFFF7ECFA0C4800680E
S11315A00100490D0800C007C00F02BD80B5002826
S11315B007D0822252000F490F48FFF7DCFAFFF7E9
S11315C0D9FA802000050F49086001BD0000000021
S11315D00840054080B5002807D0FF220E32054997
S11315E00548FFF7C8FAFFF7C5FA00200549086067
S11315F001BD0000441D0000DC1F00000840855BA5
S11316000840855A0840855D00B50100002000E0CF
S1131610401CC0B2082808DA012282400B00DBB269
S11316201342F5D0401CC0B200E0002000BD80B5DC
S113163023480078FFF7E8FFC0B2002801D1FF205B
S113164009E01F4909780122431E9A4091431C4A2C
S11316501170401EC0B202BD00B5194909780122BB
S11316608240002A01D1012200E000220B00DB07A6
S1131670DB0F13420AD0C0B2002805D1114800681C
S1131680012801DA002002E0012000E0022000BD70
S113169010B50B4A127801238340002B01D001239B
S11316A000E000231400E407E40F1C4201D00220F0
S11316B005E0C0B2002801D102480160002010BD3D
S11316C0A1000020AC00002000B50B4800680028F1
S11316D009D009480068401E0749086006480068A8
S11316E0002800D162B600BD72B603480068401CF1
S11316F00149086070470000A800002070B505008B
S11317000C001600022D06D3EE220E490E48FFF7F8
S113171032FAFFF72FFA202C06D3EF2209490B489F
S1131720FFF729FAFFF726FA094804214D434059E7
S113173004214C43001907490143F6B23002086002
S113174070BD0000341B00002C200000D4210000D8
S1131750042200000000101480B5002802D00128E3
S113176006D029E001220C210020FFF7C7FF23E067
S1131770012200210120FFF7C1FF012205210120E0
S1131780FFF7BCFF012206210120FFF7B7FF01226A
S113179007210120FFF7B2FF01220A210120FFF7F0
S11317A0ADFF01220B210120FFF7A8FF01220D212B
S11317B00120FFF7A3FFFFE701BD80B500280AD190
S11317C0022203210120FFF799FF022204210120B4
S11317D0FFF794FFFFE701BD80B5002814D1032271
S11317E005210020FFF78AFF032206210020FFF7CE
S11317F085FF032207210020FFF780FF0322092130
S11318000020FFF77BFFFFE701BD80B500280AD168
S1131810022201210120FFF771FF0222022101208F
S1131820FFF76CFFFFE701BD0200000038800440B1
S1131830000200000201000038800440000400009F
S1131840070000003C80044001000000100000007C
S11318503C80044000000008110000003480044073
S113186000000800150000003C8004400000000156
S1131870150100003C800440000000021900000033
S113188038800440010000001B0000003C8004403C
S113189000000020210000003480044000004000CB
S11318A013000000348004400000100022000000F7
S11318B034800440400000002300000038800440CD
S11318C000001000280000000000000000000000DC
S11318D0000102030405060708090A0B0C0D0E0F8C
S11318E0101112131415161700010203040506073C
S11318F008090A0B0C0D0E0F10111200000102034F
S11319000405060708090A0B0C0D0E0F101112131B
S11319101415161718191A1B1C1D1E1F202122230B
S1131920242526270000000000000000000000001D
S113193000000000000000000000000000000000A3
S11319400000000000000000B4210000C4210000D9
S1131950A4210000000000000000000000000000BE
S11319600000000000000000002100000C22000024
S11319700CFF000030B4012100220368001D002B7D
S11319800BD00468001D0C4202D04D466D1E641934
S11319902260241D1B1FF0D0FAE730BC7047000002
S11319A000B51648164988420CD0002008E01449B6
S11319B0042242438958114A04234343D150401C12
S11319C03028F4D30D480F4908600F490F4A1048D6
S11319D0801A03E013780B70521C491C0300581E34
S11319E0002BF7D10B490C48401A02E000220A7080
S11319F0491C0200501E002AF8D100BD00FEFF1F42
S1131A000000000008ED00E000000020D0180000F5
S1131A1074190000A4000020B000002000B597B0A5
S1131A2002A81A49132200F035F807A81421FFF779
S1131A30C3FA962080010090002069468871002036
S1131A406946087100206946487100F051F86A46F9
S1131A500CA90020FFF7D7F80020FFF7D6FE0C4BA7
S1131A60112202A90CA8FFF724F9094B012207A9A6
S1131A700CA8FFF79FF96846007F69460872044B7B
S1131A80012202A90CA8FFF714F9EEE76C2100006B
S1131A90FFFFFF7F124207D08B0706D00B78491C4B
S1131AA00370401C521EF7D87047830706D00B788A
S1131AB0491C0370401C521EF9D1704770B4103A8F
S1131AC003D378C9103A78C0FBD2530701D318C99D
S1131AD018C001D508C908C0D20704D30B880380F5
S1131AE0891C801C002A01D50B78037070BC7047D8
S1131AF010B5002406E001222100C9B20220FEF73D
S1131B00C0FC641C022CF6D3002403E02000FFF781
S1131B1023FE641C022CF9D30020FFF74EFE0020A4
S1131B20FFF773FE0020FFF757FE03210920FEF79D
S1131B3006FF10BD433A5C64206469736B5C776F85
S1131B40726B5C70726F6A6563745C73646B5C6DFA
S1131B5063752D73646B5C617070735C68656C6C29
S1131B606F5F776F726C645C6961725C6672646DDE
S1131B706B6C30337A34386D5C2E2E5C2E2E5C2EDA
S1131B802E5C2E2E5C706C6174666F726D5C686185
S1131B906C5C706F72745C66736C5F706F72745F90
S1131BA068616C2E6800000000B5134800780007D7
S1131BB005D511480078082101430F480170002021
S1131BC00E490860802040020D49086002200D493A
S1131BD0087080200C49087000200C49087001200E
S1131BE00B49087002200B4908700B4800780C213F
S1131BF00842FAD100BD000002D007400081044031
S1131C004480044008400640184006400050064006
S1131C10014006400040064006400640433A5C64EA
S1131C20206469736B5C776F726B5C70726F6A654A
S1131C3063745C73646B5C6D63752D73646B5C6C53
S1131C4069625C6961725C4B4C30335A345C2E2E91
S1131C505C2E2E5C2E2E5C706C6174666F726D5CF3
S1131C60647269766572735C696E7465727275709C
S1131C70745C66736C5F696E746572727570745FA0
S1131C806D616E616765722E68000000433A5C64A2
S1131C90206469736B5C776F726B5C70726F6A65DA
S1131CA063745C73646B5C6D63752D73646B5C70DF
S1131CB06C6174666F726D5C68616C5C6C7075618C
S1131CC072745C66736C5F756172745F68616C5F7B
S1131CD0636F6D6D6F6E5F636F6E6669677572615A
S1131CE074696F6E732E6300433A5C642064697395
S1131CF06B5C776F726B5C70726F6A6563745C7334
S1131D00646B5C6D63752D73646B5C706C6174667D
S1131D106F726D5C68616C5C6C70756172745C662A
S1131D20736C5F756172745F68616C5F7472616E0D
S1131D30736665725F66756E6374696F6E732E6326
S1131D4000000000433A5C64206469736B5C776F45
S1131D50726B5C70726F6A6563745C73646B5C6DE8
S1131D6063752D73646B5C706C6174666F726D5C0B
S1131D7068616C5C6C70756172745C66736C5F75C1
S1131D806172745F68616C5F696E7465727275709C
S1131D9074735F616E645F646D612E6300000000A4
S1131DA0433A5C64206469736B5C776F726B5C703C
S1131DB0726F6A6563745C73646B5C6D63752D73B9
S1131DC0646B5C706C6174666F726D5C647269766E
S1131DD06572735C636C6F636B5C7372635C667374
S1131DE06C5F636C6F636B5F6D616E616765722EB0
S1131DF063000000433A5C64206469736B5C776F32
S1131E00726B5C70726F6A6563745C73646B5C6D37
S1131E1063752D73646B5C706C6174666F726D5C5A
S1131E2068616C5C6C70756172745C66736C5F7510
S1131E306172745F68616C5F7374617475735F66FB
S1131E406C6167732E630000433A5C6420646973B9
S1131E506B5C776F726B5C70726F6A6563745C73D2
S1131E60646B5C6D63752D73646B5C706C6174661C
S1131E706F726D5C647269766572735C756172749D
S1131E805C7372635C66736C5F756172745F6472B9
S1131E90697665722E630000433A5C64206469735A
S1131EA06B5C776F726B5C70726F6A6563745C7382
S1131EB0646B5C6D63752D73646B5C706C617466CC
S1131EC06F726D5C68616C5C73696D5C66736C5F8A
S1131ED073696D5F68616C2E6300000030B401218A
S1131EE00268001D002A0FD00368C3184468083034
S1131EF00C4202D04D466D1E64191D6825601B1DE1
S1131F00241D121FECD0F8E730BC70476972714E83
S1131F10756D626572203C3D2046534C5F464541D9
S1131F20545552455F494E544552525550545F4999
S1131F3052515F4D4158000080B50549002905D034
S1131F400449042250430858FEF79DFF01BD0000D8
S1131F50870E0000A400002080B50020FFF7ECFFEE
S1131F6001BD704775617274496E7374616E636507
S1131F70203C2048575F4C50554152545F494E53C2
S1131F8054414E43455F434F554E5400756172743E
S1131F90496E7374616E6365203C2048575F4C50F2
S1131FA0554152545F494E5354414E43455F434F4C
S1131FB0554E540075617274496E7374616E636535
S1131FC0203C2048575F4C50554152545F494E5372
S1131FD054414E43455F434F554E540075617274EE
S1131FE0496E7374616E6365203C2048575F4C50A2
S1131FF0554152545F494E5354414E43455F434FFC
S1132000554E540010B5074979441831064C7C44A8
S1132010163404E0081D0A68891888470100A142A3
S1132020F8D110BD98000000B8000000696E737408
S1132030616E6365203C2048575F504F52545F499E
S11320404E5354414E43455F434F554E5400000098
S1132050636C6F636B4D6F64756C65203C206B53D0
S1132060696D436C6F636B4D6F64756C654D61781E
S113207000000000636C6F636B536F7572636520BF
S11320803C206B53696D436C6F636B536F75726364
S1132090654D617800000000636C6F636B44697682
S11320A069646572203C206B53696D436C6F636B8C
S11320B0446976696465724D61780000B9F8FFFF80
S11320C00C000000A40000200000000011FEFFFF2F
S11320D0A4000000FCF7FFFF000000200000000047
S11320E0636C6F636B536F75726365203C206B4345
S11320F06C6F636B536F757263654D61780000009C
S11321001700000F1700000F0300000F0C00000F52
S11321101100000F1700000F0700000F0900000F47
S113212000F00BF8002801D0FFF76CFF0020C04638
S1132130C046FFF773FC00F002F80120704780B539
S113214000F002F801BD000007463846FEF72AFDFC
S1132150FBE70000024880470248804702480047E6
S1132160A91B0000A1190000F92100000D0A48650F
S11321706C6C6F20576F726C64210A0A0D000000AA
S11321800000010001000100030101030501010336
S11321901800010F30203C3D206972714E756D624C
S11321A0657200000600000F1700000F0A00000F00
S11321B00C00000F1700000F0900000F0700000FAC
S11321C01100000F1700000F0900000F0700000F97
S11321D01100000F70696E203C203332550000005E
S11321E073656E6442756666657200007278427546
S11321F06666657200000000C046C046C046C04620
S1132200FFF78EFF0090044000A004400B00000F75
S11322100700000FFFF7FEFFFFF7FEFFFFF7FEFFCB
S1132220FFF7FEFFFFF7FEFFFFF7FEFFFFF7FEFFDE
S1132230FFF7FEFFFFF7FEFFFFF7FEFFFFF7FEFFCE
S1132240FFF7FEFFFFF7FEFFFFF7FEFFFFF7FEFFBE
S1132250FFF7FEFFFFF7FEFFFFF77EFEFFF7FEFF2F
S1132260FFF7FEFFFFF7FEFFFFF7FEFFFFF7FEFF9E
S1132270FFF7FEFFFFF7FEFFFFF7FEFFFFF7FEFF8E
S1132280FFF7FEFFFFF7FEFFFFF7FEFFFFF7FEFF7E
S1132290FFF7FEFFFFF7FEFFFFF7FEFFFFF7FEFF6E
S10F22A0FFF7FEFFFFF7FEFFFFF7FEFF55
S90321F9E2
