S01600006C6F775F706F7765725F64656D6F2E737265632C
S113000008030020A5390000F93B0000FD3B000077
S113001000000000000000000000000000000000DC
S1130020000000000000000000000000013C00008F
S11300300000000000000000053C0000093C000036
S11300400D3C0000113C0000153C0000193C000070
S11300501D3C0000213C0000253C0000293C000020
S11300602D3C0000313C0000353C0000393C0000D0
S11300703D3C0000413C0000453C0000493C000080
S11300804D3C0000513C0000553C0000593C000030
S1130090D1130000E3130000653C0000693C00003C
S11300A06D3C0000713C0000753C0000793C000090
S11300B07D3C0000813C0000D32B0000EB2B0000B2
S1130400FFFFFFFFFFFFFFFFFFFFFFFFFE3DFFFFBB
S11304100121C006C00E814038480160704770B5A4
S113042005000C001600022D06D3EE22344935488F
S113043000F057FC00F054FC202C06D3EF22304986
S1130440314800F04EFC00F04BFC304804214D4391
S1130450405904214C4300192D490143F6B230029E
S1130460086070BD38B504000D00022C06D3C52207
S11304702849294800F035FC00F032FC202D06D331
S1130480C6222449254800F02CFC00F029FC012058
S1130490A8402349042254430959886031BD10B54A
S11304A0040064B2002C06D558221E491E4800F0F0
S11304B018FC00F015FC64B2202C06DB5922194903
S11304C01A4800F00EFC00F00BFC200040B2FFF7CD
S11304D09FFF10BDC0B2000215490860704700B507
S11304E014480068002801D0012000E00020C0B2B8
S11304F000BD11480078C0B27047000000E100E080
S1130500E82800004C340000743B0000C43B0000A9
S1130510000010146029000070340000803B0000CB
S1130520BC3B0000E4270000743A0000783200006D
S113053010D0035414D0035102D0075110B582B027
S11305400024BA480068009000F0DCFB00F0FCFBDB
S113055000F055FAB64800F013FC012200211B20DC
S113056000F059FCB348B44908800320B2494880DC
S11305701520B14988800520AF49C8801620AE49AE
S113058008810020AC4988720021AB4800F020FEAD
S113059000F06BFE0120FFF79DFFA849002000F04A
S11305A029FF0320A4498872A34800F043FE0020D9
S11305B0A3490860A248006804210143A0480160DF
S11305C09F4800F0FFFD00F050FE684600F046FF33
S11305D00A20A949C8730A20A749C875A749A6488B
S11305E001F0A4F8A6491F2001F024F91F20FFF709
S11305F056FF012200210120FFF711FFA1480078D6
S1130600022101439F4801709F4800781021014353
S11306109D4801709D49072001F00CF90720FFF760
S11306203EFF02E09A4800F0ABFB00F0AFFA8548C9
S113063000F0A6FB844800F0A3FB844800F0A0FB74
S1130640834800F09DFB934800F09AFB924800F029
S113065097FB924800F094FB914800F091FB91487D
S113066000F08EFB904800F08BFB904800F088FB74
S11306708F4800F085FB8F4800F082FB8E4800F025
S11306807FFB8E4800F07CFB8D4800F079FB8D48A1
S113069000F076FB8C4800F073FB8C4800F070FB94
S11306A08B4800F06DFB01F0EDF80400E4B2FF2C80
S11306B0F9D0E4B2002CF6D0E4B2200030380A2895
S11306C000D2303CE4B2200041380C2800D2373C40
S11306D0E4B2200061380C2800D2573CE4B2012C6B
S11306E014D000D28AE0032C1ED016D3052C2AD0B5
S11306F021D3072C37D02ED3092C4ED03BD30B2C2F
S11307006AD051D30D2C73D06CD377E09D4800F0A0
S113071037FB002000F0DEF873E09B4800F030FB6C
S1130720012000F0D7F86CE0984800F029FB022083
S113073000F0D0F865E0964800F022FB002100208C
S113074000F0DCF85DE0934800F01AFB0021012082
S113075000F0D4F855E0904800F012FB012100208D
S113076000F0CCF84DE08D4800F00AFB0321002096
S113077000F0C4F845E0032300220021012001F029
S11307804EF900F0CEF8042803D1854800F0F8FAB9
S113079002E0844800F0F4FA33E0834800F0F0FA11
S11307A0012000F00FF92CE0032300220021012096
S11307B001F035F900F0B5F8042809D17B4800F0C0
S11307C0DFFA7B4800F0DCFA042000F0FBF818E0C4
S11307D0744800F0D5FA14E0764800F0D1FA00F03D
S11307E0FFF80EE0744800F0CBFA00F036FD08E0A4
S11307F0724800F0C5FA00F038FD02E0704800F0DD
S1130800BFFAE4B2082C00D10FE7E4B20C2C00D1FB
S11308100BE7E4B20D2C00D107E700F042FE0428F8
S113082000D1FFE6BC4800F0ABFAFEE6F43B000062
S113083028370000DE070000E00000201D0B000048
S1130840EC00002084300000683600003C380000D2
S1130850D439000080B58020400000F0E1FFFF2083
S1130860801D00F0DDFF01BD074800781021014321
S1130870054801707047000030000020000000208F
S11308805508000001C0074003C007406908000084
S1130890E4380000E839000094340000B834000063
S11308A0843A0000943A0000A43A0000543800004E
S11308B0B43A0000C43A000004310000FC390000DE
S11308C0742F000040310000882E0000C430000066
S11308D07C31000000B583B000216A46917000218C
S11308E06A46117101216A46917102216A461170AA
S11308F06946C871684601F0E1F807BD00B583B0E8
S113090000226B469A7001226B461A716A46507136
S113091007206A46107068464170684601F0CEF8B8
S113092007BD30B583B0002400F0BBFD042804D11A
S1130930814800F025FA042022E0002069468870EE
S1130940002069460871032069460870684601F072
S1130950B5F8002500E06D1C7848854203DAFFF7FE
S1130960C8FD0428F7D0FFF7C4FD042800D12424CF
S113097000F097FD042802D100F093FD040020004C
S11309803EBD000088360000443700006037000098
S1130990A4320000D03200007C37000098370000F9
S11309A06C3800001832000084380000A8360000BB
S11309B09C380000B4380000103A0000243A0000CB
S11309C0CC38000000B583B000216A469170002144
S11309D06A46117169460870684601F06FF807BDF0
S11309E000B583B00020694688700020694608710C
S11309F0052069460870684601F060F807BD80B5B7
S1130A004F480078800602D54E4800F0B9F94C48AA
S1130A100078000702D54C4800F0B2F94848007845
S1130A20400702D5494800F0ABF9454800788007F3
S1130A3002D5474800F0A4F946480078000602D5DC
S1130A40454800F09DF943480078400602D54348E4
S1130A5000F096F93F480078800602D5404800F03F
S1130A608FF93C480078800702D53E4800F088F9A9
S1130A7038480078C0074DD53B4800F081F93B4821
S1130A800078C0B24007400F032802D1384800F074
S1130A9077F936480078C0B24007400F042806D1E1
S1130AA034480078400702D1334800F069F92F48F0
S1130AB00078C0B24007400F042809D12D480078BF
S1130AC0C0B24007400F012802D12C4800F058F969
S1130AD026480078C0B24007400F042809D12548B1
S1130AE00078C0B24007400F022802D1244800F029
S1130AF047F91E480078C0B24007400F042809D1C6
S1130B001C480078C0B24007400F032802D11D489A
S1130B1000F036F901BD0000FC38000080B5FFF795
S1130B20DEFC002807D01848807AC01C1649887259
S1130B30154800F07FFB01BDDC34000010270000E5
S1130B4001F0074000350000D43A0000E43A000008
S1130B50B437000000F00740F43A0000383A0000CF
S1130B6014390000D0370000B031000001E0074024
S1130B702C39000002E00740443900005C390000D1
S1130B80743900008C390000E000002080B5012297
S1130B9000210020FFF743FC012201210020FFF780
S1130BA03EFC012202210020FFF739FC012205212D
S1130BB00020FFF734FC012206210020FFF72FFC60
S1130BC0012207210020FFF72AFC0122082100202E
S1130BD0FFF725FC012209210020FFF720FC012258
S1130BE003210120FFF71BFC012204210120FFF750
S1130BF016FC012206210120FFF711FC0122072126
S1130C000120FFF70CFC01220021002001F02AF84A
S1130C1001220121002001F025F8012202210020F7
S1130C2001F020F801220521002001F01BF8012227
S1130C300621002001F016F801220721002001F00E
S1130C4011F801220821002001F00CF801220921E9
S1130C50002001F007F801220321012001F002F82D
S1130C6001220421012000F0FDFF012206210120C0
S1130C7000F0F8FF01220721012000F0F3FF00211A
S1130C800020FFF7EFFB01210020FFF7EBFB02211F
S1130C900020FFF7E7FB05210020FFF7E3FB062117
S1130CA00020FFF7DFFB07210020FFF7DBFB082113
S1130CB00020FFF7D7FB09210020FFF7D3FB032116
S1130CC00120FFF7CFFB04210120FFF7CBFB062116
S1130CD00120FFF7C7FB07210120FFF7C3FB01BD7C
S1130CE0704700B583B00091019202906A460449AE
S1130CF01820ABBE002801D101F016F803B000BDE6
S1130D001010020010B5002406E001222100C9B22F
S1130D10022000F080F8641C022CF6D3002403E0C7
S1130D20200001F035F8641C022CF9D3002001F0F6
S1130D3060F8002001F085F8002001F069F8032133
S1130D40092000F002FE10BD80B596218901002023
S1130D5001F086F801BD30B4012100220368001DB2
S1130D60002B0BD00468001D0C4202D04D466D1EB2
S1130D7064192260241D1B1FF0D0FAE730BC7047B1
S1130D800EB400B582B003A900916B4602000121A4
S1130D90034878440A3001F0F6F8029906B008478F
S1130DA01D2C000038B50C000021002500E0491C72
S1130DB04F4A04234B43D25C182A0AD04C4A0423DA
S1130DC04B43D25CC0B28242F1D149480422514320
S1130DD04518002D01D101201CE06878002807D0B7
S1130DE02100A87800F025F8002804D0012011E0A3
S1130DF001F0A8F920606946E87800F01DFE00289B
S1130E0007D120680099491C01F0F3F92060002003
S1130E1000E0042032BD80B5D2B2C9B2354BC0B2B5
S1130E20185C00F067FD002801D1002000E00220DA
S1130E3002BD10B50C00C0B20100002905294CD92F
S1130E40891F1AD0491E1DD0491E1ED0491E1FD00D
S1130E50491E20D0491E22D0491E23D0091F25D067
S1130E60491E27D0491E29D0491E2AD0491E2BD0FD
S1130E70491E2CD0491E2DD034E080200002206071
S1130E80002010BDA7482060FAE7A7482060F7E7D4
S1130E90A6482060F4E7802000022060F0E70120EB
S1130EA02060EDE7FA2080002060E9E701F04AF9CC
S1130EB02060E5E701F035F92060E1E79C48206017
S1130EC0DEE79C482060DBE79B482060D8E79B482E
S1130ED02060D5E79A482060D2E72100C0B2FFF72E
S1130EE061FFCEE7974820600120CAE700000000B8
S1130EF0603A000064000020F2B584B007000020CE
S1130F00029000200190002500240026FFB2132F38
S1130F1007DBA02252008C498C48FFF7E2FEFFF762
S1130F20DFFE8B48FFB2C55DEDB22800002804D077
S1130F30032804D0062804D005E00E2503E00F257D
S1130F4001E00C25FFE700A9491C2800C0B200F00D
S1130F5033FD002801D00320E2E07E48EDB20421F5
S1130F604D434559002D01D10320D9E0684640780E
S1130F700421484328184078002846D0694668462A
S1130F80407804225043285C00F016FD002801D06C
S1130F900320C5E06F486946497804225143695CDF
S1130FA0042251434458002C01D10320B8E0684680
S1130FB00078042148432018407800281FD000A955
S1130FC0891C6846007804225043205C00F0F4FC3D
S1130FD0002801D00320A3E05E4869460978042272
S1130FE05143615C042251434658002E01D1032031
S1130FF096E06846807804214843305C0AE06846FD
S1131000007804214843205C04E0684640780421C9
S11310104843285C0499C0B2FFF70BFF002801D0B5
S113102001207DE0684640780421484328188078F0
S113103000281CD068464078042148432818C0780A
S1131040C0B2052849D007283ED009284ED00B2825
S113105031D00D2802D00E2851D055E001A90D2021
S113106000F0EAFC02A90C2000F0E6FC4CE0002CA5
S11310700ED0684600780421484320188078002860
S113108006D068460078042148432018C078D7E782
S1131090002E0ED0684680780421484330188078AA
S11310A0002806D068468078042148433018C07868
S11310B0C6E7002034E001A90B2000F0BDFC02A922
S11310C00A2000F0B9FC1FE001A9072000F0B4FCDD
S11310D002A9062000F0B0FC16E001A9052000F0EA
S11310E0ABFC02A9042000F0A7FC0DE001A9092033
S11310F000F0A2FC02A9082000F09EFC04E001A973
S11311000E2000F099FCFFE7049800680299491C3E
S113111048430199491C01F06CF8049908600020C7
S113112005B0F0BD8038010081380100006CDC029C
S1131130672B0000CE560000358200003682000086
S11311409CAD000003D90000E02D0000C83600006B
S1131150500000209000002000B501000020604AEB
S11311601268002A03D10868424908600120C0B20D
S113117000BD00B501000020594A1268002A03D1BD
S11311800888584908600120C0B200BD006856496B
S113119008607047C0B20002544908607047C0B28A
S11311A000014F4908607047017817220A405049EE
S11311B00A600178802211404E4A11604C49096846
S11311C00160704780B5002801D0FFF7EDFF01BD35
S11311D07CB504000D000026002C02D13000C0B202
S11311E027E0200000F048F80600F6B2002E1ED0DA
S11311F001A9200000F080F80020FFF7D0FF0020B4
S1131200694608806846FFF7B4FF0600F6B2002E70
S113121003D001A8FFF7A0FF06003000C0B22842A7
S113122005D00120FFF7B6FF0120FFF7B8FF30001B
S1131230C0B276BD38B50400200000F01DF80500EA
S1131240EDB2002D06D06946200000F055F868463E
S1131250FFF79CFF2800C0B232BD80B50120FFF724
S113126099FF0120FFF79BFF01BD80B50020FFF728
S113127096FF01BD00D0034000B5010000200A889C
S11312803C4BD21A822A0BD248880D2808D24888AF
S1131290002805D08888202802D28888002801D117
S11312A0002000E00120C0B200280BD00A78920789
S11312B008D0314A4B88D25C898892B28A420CD2D7
S11312C000200AE0C0B2002807D02C4A4B88D25C28
S11312D0898892B28A4200D20020C0B200BD0000C8
S11312E014D0035204D07B5008D0034010D00354D0
S11312F01CD003401CD0835370B504000D0020881B
S11313001F494018FF216E31484328602E68208809
S1131310042100F06BFF1B4940183018286028682E
S11313201949628802235343C95A4018286028681F
S1131330A188401828602078800705D16088032898
S113134002D22868401E2860286809494843E18879
S1131350E12212014A43801821893C224A43801821
S1131360A17A401828602868401C286070BD0000DD
S113137080510100B2070000143B0000243B000030
S11313804EF8FFFF14FEFFFFEC3700000121C006FA
S1131390C00E814028480160704710B5040064B253
S11313A0002C06D5582225492548FFF79AFCFFF75B
S11313B097FC64B2202C06DB592220492148FFF710
S11313C090FCFFF78DFC200040B2FFF7DFFF10BD5B
S11313D080B51D480068002802D01B48006880477B
S11313E001BD80B518484068002802D016484068FE
S11313F0804701BD38B505000C00EDB2022D06DBB7
S1131400712212491248FFF76CFCFFF769FC2000B7
S1131410002806D172220D490E48FFF762FCFFF73F
S11314205FFC0948EDB20421694344500A48EDB217
S11314304057FFF7B2FF31BD00E100E0382B000058
S1131440343B000080330000F8000020282F000007
S1131450E43100004C3A00008C00002000B500216B
S11314600278002A02D00A00202111434078002883
S113147002D00800022101430C48017000BD400164
S11314800B49087070470B49087070470A49087087
S11314907047400109490870704780010849087085
S11314A0704708480078C0B27047000000E0074861
S11314B001E08F5201E0175002E0175002E087521A
S11314C002E00F5303E037500121C006C00E8140F3
S11314D082480160704770B505000C001600022DAB
S11314E006D37F227A497B48FFF7FBFBFFF7F8FB23
S11314F0202C06D3802276497748FFF7F2FBFFF7CA
S1131500EFFB7A4804214D43405904214C43001910
S1131510802149050143F6B20E6070BD70B5050027
S11315200C001600022D06D38F2269496948FFF783
S1131530D8FBFFF7D5FB202C06D3902264496648DC
S1131540FFF7CFFBFFF7CCFB684804214D4340591C
S113155004214C430019842149050143F6B270006B
S1131560086070BD70B505000C001600022D06D38E
S1131570A12257495748FFF7B4FBFFF7B1FB202CD2
S113158006D3A22252495448FFF7ABFBFFF7A8FB4E
S1131590654804214D43405904214C4300198821D6
S11315A049050143F6B2B000086070BD70B505008E
S11315B00C001600022D06D3B72245494548FFF713
S11315C090FBFFF78DFB202C06D3B82240494248FC
S11315D0FFF787FBFFF784FB444804214D43405940
S11315E004214C430019902149050143F6B230010E
S11315F0086070BD70B505000C001600022D06D3FE
S1131600DD2233493348FFF76CFBFFF769FB202CDD
S113161006D3DE222E493048FFF763FBFFF760FB59
S1131620414804214D43405904214C430019982159
S113163049050143F6B2B001086070BD70B50500FC
S11316400C001600022D07D3B8225200204921486D
S1131650FFF747FBFFF744FB202C07D3FF2272322E
S11316601B491D48FFF73DFBFFF73AFB1F480421C8
S11316704D43405904214C43001953490143F6B2E8
S11316803004086070BD38B505000C00022D07D386
S1131690FF22AC3212491348FFF723FBFFF720FB6C
S11316A0202C07D3D62252000D490F48FFF719FB0F
S11316B0FFF716FB1C4804214D43405904214C43B9
S11316C00019E0214905014380204004086031BD30
S11316D0142C0000B4350000983B000000E100E049
S11316E0142C0000B4350000983B0000D43B0000EB
S11316F010B5040064B2002C06D55822334934488E
S1131700FFF7EFFAFFF7ECFA64B2202C06DB59225C
S11317102E493048FFF7E5FAFFF7E2FA200040B21D
S1131720FFF7D2FE10BD0000D43B000038B5050021
S11317300C00002D09D003E0280000F013F8083550
S113174028680021C9438842F6D1002C09D003E05F
S1131750200000F043F80C3420680021C94388427B
S1131760F6D131BD70B504002068000AC5B22078F6
S1131770C6B201222900C9B20220FFF74CFB0022A5
S11317803100280000F06EFA227931002800FFF7BA
S1131790C5FE627931002800FFF79DFEA279310071
S11317A02800FFF703FFE27931002800FFF746FF26
S11317B0E079002807D008484057002803D006489D
S11317C04057FFF795FF70BD00001818C82A0000A5
S11317D0043B0000FC3200003218000070B5040025
S11317E02068000AC5B22078C6B201222900C9B215
S11317F00220FFF710FB01223100280000F032FA2A
S113180062683100280000F062FA227A3100280070
S1131810FFF7A8FE627A31002800FFF7EBFE70BDE7
S113182080B50100090ACAB2C1B21000FFF72BFF4C
S113183001BD1E1F38B504000D0064B20D20C04365
S1131840844206DA47220B490B48FFF74AFAFFF7AE
S113185047FA64B2202C06DB482206490748FFF702
S113186040FAFFF73DFA064864B204214C430019DC
S1131870056431BD702C000028330000543300008F
S113188000FEFF1F10B582B0094908680024E44334
S1131890A04201D00C6016BD01226946002000F070
S11318A03EFB012802D16846007816BD200016BD13
S11318B0DC00002010B5002200E0521C724B0C2406
S11318C054431B5D282B13D06F4B0C2454431B5DD6
S11318D0C0B28342F1D16C4B0C2454431B195B7886
S11318E0C9B28B42E9D168480C214A43801800E010
S11318F0002010BD70B505000E0014000020EDB2EC
S1131900282D06DB542261496148FFF7EAF9FFF705
S1131910E7F93100C9B22800C0B2FFF7CBFF0028B5
S113192011D0E4B2002C06D04168096882680A43E9
S11319304068026005E04168096882689143406834
S11319400160002000E0022070BD70B506000C00AC
S11319500025F6B2132E06DB9E224C494D48FFF7B4
S1131960C0F9FFF7BDF9F6B2092E08D00A2E0BD044
S11319700B2E0ED0112E11D0122E14D018E0E4B27A
S1131980A0064549086014E0E4B220064349086013
S11319900FE0E4B2A004424908600AE0E4B2600146
S11319A04049086005E0E4B220013F49086000E0D6
S11319B003252800C0B270BD70B506000C000025D8
S11319C0F6B2132E07DB9022520030493148FFF75C
S11319D088F9FFF785F9F6B2092E08D00A2E0AD045
S11319E00B2E0CD0112E0ED0122E10D013E02A483C
S11319F00068207010E02948006820700CE0284836
S1131A000068207008E027480068207004E0264839
S1131A100068207000E003252800C0B270BD0021DA
S1131A200A00010711430A001804E021C902014019
S1131A30114321480160704770B506000D00002471
S1131A40F6B20F2E07DB8622920010491748FFF7E3
S1131A5048F9FFF745F900202860F6B2002E04D0BB
S1131A60032E06D00E2E08D00AE011480068286024
S1131A7007E010480068286003E00120286000E0C7
S1131A8004242000C0B270BD3C270000B82F000021
S1131A90483500006C35000004800C5D04800C5C4B
S1131AA000700C5904809452048004529035000054
S1131AB044801C5E448014584480044038B50500BA
S1131AC02C78E4B2082C06DB432246494648FFF74B
S1131AD008F9FFF705F9E4B2002C0BD0022C3CD036
S1131AE01ED3042C1CD005D3062C36D035D3072C9A
S1131AF057D074E0E4B2002C02D10024042501E0A4
S1131B0002240125FFF7CDFCC0B2EDB2A84201D0FA
S1131B10032065E02000C0B2FFF7B1FC00205FE0C5
S1131B20E4B2012C02D10024012501E002240425A1
S1131B30FFF7B7FCC0B2EDB2A84201D003204FE0DA
S1131B402000C0B2FFF79BFC2848006804218843AA
S1131B502649086030BF002042E0E4B2022C07D1DD
S1131B600024A879002809D0E879FFF796FC05E05D
S1131B70E4B2052C01D1022400E003242000C0B209
S1131B80FFF781FCFFF78DFC00900098401C00904B
S1131B9016480068042101431448016030BF002046
S1131BA01EE00420FFF76FFC6878FFF76FFC68788D
S1131BB0002805D12879002802D06879FFF769FC4C
S1131BC0FFF76FFC00900098401C009007480068E5
S1131BD0042101430548016030BF002000E00120DA
S1131BE032BD00BFD82E0000E836000010ED00E042
S1131BF038B504000D00022C06D3B82245494648E6
S1131C00FFF76FF8FFF76CF8202D06D3B92241498E
S1131C104248FFF766F8FFF763F80120A8404049FF
S1131C20042254430959486031BD38B504000D00FD
S1131C30022C06D3C52237493748FFF752F8FFF77D
S1131C404FF8202D06D3C62232493448FFF749F80D
S1131C50FFF746F80120A8403149042254430959AA
S1131C60886031BD70B504000E001500022C06D347
S1131C702D222C492848FFF734F8FFF731F8202E9D
S1131C8006D32E2227492548FFF72BF8FFF728F81B
S1131C90EDB2012D0DD12248042161434058406921
S1131CA00121B14001431E480422544300594161BB
S1131CB00CE01B4804216143405840690121B140B4
S1131CC088431749042254430959486170BD70B5CB
S1131CD006000D001400022E06D3422211490E48BC
S1131CE0FEF7FFFFFEF7FCFF202D06D343220D492C
S1131CF00A48FEF7F6FFFEF7F3FF002C04D0290094
S1131D003000FFF775FF03E029003000FFF78DFF77
S1131D1070BD0000FC2F0000D8350000A43B00007B
S1131D20DC3B00004030000080B5012000F0B8FA30
S1131D3001BD704770B505000C001600022D06D3D6
S1131D40EE220E490E48FEF7CCFFFEF7C9FF202C09
S1131D5006D3EF2209490B48FEF7C3FFFEF7C0FF85
S1131D60094804214D43405904214C4300190749B3
S1131D700143F6B23002086070BD0000D8290000AB
S1131D80243500008C3B0000CC3B00000000101404
S1131D9080B5002802D0012806D029E001220C21B8
S1131DA00020FFF7C7FF23E0012200210120FFF7F5
S1131DB0C1FF012205210120FFF7BCFF01220621FA
S1131DC00120FFF7B7FF012207210120FFF7B2FF2F
S1131DD001220A210120FFF7ADFF01220B2101207E
S1131DE0FFF7A8FF01220D210120FFF7A3FFFFE762
S1131DF001BD80B500280AD1022203210120FFF78A
S1131E0099FF022204210120FFF794FFFFE701BD9F
S1131E1080B5002814D1032205210020FFF78AFF92
S1131E20032206210020FFF785FF0322072100205B
S1131E30FFF780FF032209210020FFF77BFFFFE764
S1131E4001BD80B500280AD1022201210120FFF73B
S1131E5071FF022202210120FFF76CFFFFE701BDA1
S1131E6030B585B00C003F4948603F48002803D096
S1131E703C484068C046C04601223A484168C9B25D
S1131E802320FEF7C8FF012569460920FFF734F82F
S1131E900098290000F0ADF9009001A80C2100F091
S1131EA021FA00980190029401A92E48406800F09C
S1131EB01BFA2C48406800F015FB2A48406800F0E3
S1131EC037FB01202749087005B030BD70B50C0000
S1131ED016000025002C01D100201FE0012804D0A9
S1131EE0022802D00020C04318E01E4800780028D1
S1131EF00FD10020C04311E01A48406800F056FB9F
S1131F000028F9D021781748406800F079FB641C58
S1131F106D1C3000461E0028EED1280070BD70B53F
S1131F200E0014000025002802D00020C04317E052
S1131F300C48007800280AD10020C04310E031008A
S1131F400848406800F06BFB761C6D1C641E002C76
S1131F5005D00448406800F03BFB0028EFD128007E
S1131F6070BD0000F00000200000000070B5060005
S1131F7008001400002B05D01D002178B047641C14
S1131F806D1EFAD170BDFDB586B00C0009E00123C9
S1131F90079A21000698FFF7E9FF04000798401C00
S1131FA0079007980078002801D109B0F0BD2528D2
S1131FB0EDD107984678801C0790252E00D195E036
S1131FC0582E69D0632E0ED0642E1AD0692E18D0E4
S1131FD06F2E61D0702E68D0732E70D0752E5BD0AA
S1131FE0782E59D0DDE708980068089908600168E0
S1131FF0001D089A1060C9B22000069A9047040098
S1132000CFE708980068089908600568001D0899DA
S11320100860002D04D52D212000069A9047040065
S113202064266F2E01D1082106E02021314378294E
S113203001D00A2100E0102101910B2100912F0011
S1132040642E03D1002D01D578420700009D6D1E3A
S113205000953800019900F0CCF83031C9B23A2922
S113206002DB30005138091802A8451929703800DC
S1132070019900F0BEF8070002D000980128E5DAC3
S113208020000B21009A8C1AB9D02978069A90471F
S11320906D1C641EF9D1B2E70898006808990860BD
S11320A00568001D08990860BBE70898006808994E
S11320B008600568001D089908607826B1E708984B
S11320C00068089908600568001D089908602800E0
S11320D000F0BAFA01002000002990D00C00297801
S11320E0069A90476D1C641EF9D188E7252183E781
S11320F02C480078C0B270472B480078C0B27047B3
S11321002A480078C0B2704729480078C0B27047A6
S113211080B5FFF7F1FF012801D1274800E02748E7
S113212002BD38B5FFF7ECFF0500FFF7EDFF040033
S1132130FFF7EEFF0121A9400122A240514300F024
S113214058F832BD10B50024FFF7D2FF002802D1A1
S1132150184C200010BDFFF7CBFF012818D1FFF762
S1132160CBFF012809D10124FFF7CAFF84402100D5
S1132170114800F03BF80400EBE701210C00FFF7E5
S1132180BFFF210081400D4800F030F80400E0E773
S1132190FFF7AEFF022802D180242402D9E72000F1
S11321A0D8E7000000400E53014006500840965006
S11321B018401650006CDC0200127A0080841E0065
S11321C0F446002804D4494200F013F84042604722
S11321D04042002905D45FD000F00BF84042494248
S11321E06047494200F005F84942604703460B4303
S11321F0E6D40022030A8B420BD203098B4219D284
S113220043088B422ED2411A00D201465241104655
S11322107047FF2209023FD012068B4205D31212E7
S113222009028B4201D31212090203098B4219D30A
S113223000E0090AC3098B4201D3CB01C01A524101
S113224083098B4201D38B01C01A524143098B424B
S113225001D34B01C01A524103098B4201D30B0134
S1132260C01A5241C3088B4201D3CB00C01A524159
S113227083088B4201D38B00C01A524143088B421E
S113228001D34B00C01A5241884200D3401A524134
S1132290CFD201461046704708B500F0DDF908BDFD
S11322A080B5C046C046024A11001820ABBEFBE709
S11322B026000200130030B414001500103902D3B4
S11322C010393CC0FCD2490700D30CC000D504C06F
S11322D0890002D30280801C002900D5027030BC22
S11322E0704700000022E5E738B505000C00002D1A
S11322F006D02F228C498D48FEF7F3FCFEF7F0FC44
S1132300280000F001F9280000F022F96268216831
S1132310280000F02BF8002801D0012025E0A17A44
S1132320280000F081F8002801D003201DE0217A64
S1132330280000F095F8617A280000F0ADF8002834
S113234001D0042011E0A06802009201D20FA0681D
S11323500100C901C90F280000F0B0F8280000F0FE
S1132360C1F8280000F0E4F8002032BDF2B582B0D4
S11323701400002806D06B226B496C48FEF7B1FCB0
S1132380FEF7AEFC0425029821006943FFF731FFF4
S1132390060002982900B6B27143FFF72AFF84426F
S11323A002D2001B009001E0201A0090052709E0EA
S11323B0201A0099814204D30090FFB23D00684680
S11323C086887F1CFFB2212F12DA02982100FFB207
S11323D07943FFF70EFF694688800298FFB2694689
S11323E089887943FFF705FF8442E1D2001BE0E7C7
S11323F020006421FFF7FDFE032148430099814238
S113240010D22800001F042803D2802080025849DB
S113241008606D1E280657490860B6B25648066023
S1132420002000E00220FEBD10B50C00002806D0FC
S1132430E7223D493D48FEF754FCFEF751FCE4B267
S1132440022C04D1802080054C49086006E0E4B2E7
S113245020014B490860002048490860002010BD55
S113246010B50C00002806D0FA222F492F48FEF799
S113247038FCFEF735FCE4B2002C03D100204149BE
S1132480086008E002203F490860E4B22000C00769
S1132490C00F3D49086010BD10B50C00002807D0DE
S11324A0FF22123220492148FEF71BFCFEF718FCDC
S11324B0E4B2600335490860002010BD38B50D0052
S11324C01400002807D08E22520017491748FEF73F
S11324D008FCFEF705FC28072D49086020072D4954
S11324E0086031BD80B5002807D0952252000E49FE
S11324F00E48FEF7F6FBFEF7F3FB27480068802141
S11325000903264A116001BD80B5002807D09F2227
S1132510520005490548FEF7E4FBFEF7E1FB002005
S11325201E49086001BD0000CC2C0000AC33000043
S113253080B5002807D0FF22523219491948FEF706
S1132540D0FBFEF7CDFB8020C0021749086001BD17
S113255080B5002807D0FF225C3211491148FEF7EC
S1132560C0FBFEF7BDFB00200F49086001BD000061
S1132570004085580040255C004065500040855E61
S113258008400552084085500840055000408556D3
S11325900440055E0840055E044005400840855936
S11325A0CC2C0000AC3300000840055980B500284D
S11325B006D055220F491048FEF793FBFEF790FB17
S11325C00E4800680100C90D0800C007C00F02BD15
S11325D080B5002806D0672206490748FEF781FB2C
S11325E0FEF77EFB054800680100490D0800C0079E
S11325F0C00F02BD342E0000FC330000044005402F
S113260010B50C00002806D02F220C490C48FEF708
S113261068FBFEF765FBE4B20A48046010BD10B520
S11326200C00002806D0672204490548FEF759FB30
S1132630FEF756FB03480068207010BD282D0000EB
S1132640D43300000C400540010000E0491C0A7826
S1132650002AFBD1081A7047704700000A010000E5
S113266001000000010000000B0100000100000057
S1132670010000000D010000010000000100000045
S1132680FFFFFFFF00000000000000000100000049
S1132690010100000001000001010000050100002B
S11326A001010000FFFFFFFF000000000001020322
S11326B00405060708090A0B0C0D0E0F1011120071
S11326C0000102030405060708090A0B0C0D0E0F8E
S11326D0101112131415161718191A1B1C1D1E1F7E
S11326E020212223242526271415000000000000A1
S11326F000000000000000000000000000000000D6
S113270000000000000000000000000000000000C5
S1132710543B0000643B0000443B00000000000008
S113272000000000000000000000000000000000A5
S113273008370000E43B0000FFFFFFFF0200000039
S11327403880044000020000020100003880044088
S113275000040000070000003C8004400100000069
S1132760100000003C80044000000008110000003C
S11327703480044000000800150000003C80044040
S113278000000001150100003C800440000000022C
S11327901900000038800440010000001B00000004
S11327A03C800440000000202100000034800440EC
S11327B000004000130000003480044000001000BA
S11327C02200000034800440400000002300000088
S11327D038800440000010002800000000000000C1
S11327E000000000433A5C64206469736B5C776F9B
S11327F0726B5C70726F6A6563745C73646B5C6D3E
S113280063752D73646B5C617070735C6C6F775F60
S1132810706F7765725F64656D6F5C6961725C6629
S113282072646D6B6C30337A34386D5C2E2E5C2E92
S11328302E5C2E2E5C2E2E5C706C6174666F726D35
S11328405C647269766572735C696E7465727275C4
S113285070745C66736C5F696E74657272757074A3
S11328605F6D616E616765722E68000000B5164881
S1132870164988420CD0002008E01449042242433F
S11328808958114A04234343D150401C3028F4D3BF
S11328900D480F4908600F490F4A1048801A03E099
S11328A013780B70521C491C0300581E002BF7D1DF
S11328B00B490C48401A02E000220A70491C02002D
S11328C0501E002AF8D100BD00FEFF1F00000000CA
S11328D008ED00E0000000205C2600003C2700001A
S11328E0E000002008010020433A5C64206469731E
S11328F06B5C776F726B5C70726F6A6563745C7328
S1132900646B5C6D63752D73646B5C617070735C78
S11329106C6F775F706F7765725F64656D6F5C690C
S113292061725C6672646D6B6C30337A34386D5CE2
S11329302E2E5C2E2E5C2E2E5C2E2E5C706C617402
S1132940666F726D5C68616C5C706F72745C6673E8
S11329506C5F706F72745F68616C2E6800000000B9
S1132960433A5C64206469736B5C776F726B5C7070
S1132970726F6A6563745C73646B5C6D63752D73ED
S1132980646B5C617070735C6C6F775F706F77659C
S1132990725F64656D6F5C6961725C6672646D6BB5
S11329A06C30337A34386D5C2E2E5C2E2E5C2E2ED9
S11329B05C2E2E5C706C6174666F726D5C68616C09
S11329C05C6770696F5C66736C5F6770696F5F6882
S11329D0616C2E6800000000433A5C6420646973F3
S11329E06B5C776F726B5C70726F6A6563745C7337
S11329F0646B5C6D63752D73646B5C617070735C88
S1132A006C6F775F706F7765725F64656D6F5C691B
S1132A1061725C6672646D6B6C30337A34386D5CF1
S1132A202E2E5C2E2E5C2E2E5C2E2E5C706C617411
S1132A30666F726D5C68616C5C706F72745C6673F7
S1132A406C5F706F72745F68616C2E6800000000C8
S1132A5000B514480078000705D51248007808210D
S1132A6001431048017000200F4908608020400293
S1132A700E49086002200E49087000200D490870B4
S1132A8000200D49087001200C49087042200C49AF
S1132A9008700C480078C0B20C2101400429F8D118
S1132AA000BD000002D0074000810440448004407F
S1132AB008400640184006400050064001400640C9
S1132AC00040064006400640433A5C642064697353
S1132AD06B5C776F726B5C70726F6A6563745C7346
S1132AE0646B5C6D63752D73646B5C6C69625C69AB
S1132AF061725C4B4C30335A345C2E2E5C2E2E5C4F
S1132B002E2E5C706C6174666F726D5C6472697693
S1132B106572735C696E746572727570745C6673E9
S1132B206C5F696E746572727570745F6D616E61ED
S1132B306765722E68000000433A5C642064697320
S1132B406B5C776F726B5C70726F6A6563745C73D5
S1132B50646B5C6D63752D73646B5C6C69625C693A
S1132B6061725C4B4C30335A345C2E2E5C2E2E5CDE
S1132B702E2E5C706C6174666F726D5C6472697623
S1132B806572735C696E746572727570745C667379
S1132B906C5F696E746572727570745F6D616E617D
S1132BA06765722E6800000010B50400022C07D37C
S1132BB0FF22C63213491448FEF793F8FEF790F843
S1132BC00020C0431149042254430959A03108602C
S1132BD010BD80B50E480068002802D00C4800687B
S1132BE080470020FFF7E0FF01BD80B5084840683A
S1132BF0002802D00648406880470120FFF7D4FF30
S1132C0001BD0000842D0000FC350000EC3B0000F9
S1132C1000010020433A5C64206469736B5C776F45
S1132C20726B5C70726F6A6563745C73646B5C6D09
S1132C3063752D73646B5C6C69625C6961725C4B77
S1132C404C30335A345C2E2E5C2E2E5C2E2E5C704F
S1132C506C6174666F726D5C68616C5C706F7274C9
S1132C605C66736C5F706F72745F68616C2E680071
S1132C70433A5C64206469736B5C776F726B5C705D
S1132C80726F6A6563745C73646B5C6D63752D73DA
S1132C90646B5C706C6174666F726D5C647269768F
S1132CA06572735C696E746572727570745C73724C
S1132CB0635C66736C5F696E746572727570745F61
S1132CC06D616E616765722E63000000433A5C6457
S1132CD0206469736B5C776F726B5C70726F6A658A
S1132CE063745C73646B5C6D63752D73646B5C708F
S1132CF06C6174666F726D5C68616C5C6C7075613C
S1132D0072745C66736C5F756172745F68616C5F2A
S1132D10636F6D6D6F6E5F636F6E66696775726109
S1132D2074696F6E732E6300433A5C642064697344
S1132D306B5C776F726B5C70726F6A6563745C73E3
S1132D40646B5C6D63752D73646B5C706C6174662D
S1132D506F726D5C68616C5C6C70756172745C66DA
S1132D60736C5F756172745F68616C5F7472616EBD
S1132D70736665725F66756E6374696F6E732E63D6
S1132D8000000000433A5C64206469736B5C776FF5
S1132D90726B5C70726F6A6563745C73646B5C6D98
S1132DA063752D73646B5C6C69625C6961725C4B06
S1132DB04C30335A345C2E2E5C2E2E5C2E2E5C70DE
S1132DC06C6174666F726D5C68616C5C706F727458
S1132DD05C66736C5F706F72745F68616C2E680000
S1132DE0433A5C64206469736B5C776F726B5C70EC
S1132DF0726F6A6563745C73646B5C6D63752D7369
S1132E00646B5C706C6174666F726D5C647269761D
S1132E106572735C636C6F636B5C7372635C667323
S1132E206C5F636C6F636B5F6D616E616765722E5F
S1132E3063000000433A5C64206469736B5C776FE1
S1132E40726B5C70726F6A6563745C73646B5C6DE7
S1132E5063752D73646B5C706C6174666F726D5C0A
S1132E6068616C5C6C70756172745C66736C5F75C0
S1132E706172745F68616C5F7374617475735F66AB
S1132E806C6167732E6300000A0D204E6F746573C6
S1132E90333A5254432063616E2062652075736532
S1132EA0642061732053544F502F574149542F5677
S1132EB04C50532F564C4C53782077616B6575708A
S1132EC020736F757263652C657863657074205622
S1132ED04C4C533021000000433A5C642064697315
S1132EE06B5C776F726B5C70726F6A6563745C7332
S1132EF0646B5C6D63752D73646B5C706C6174667C
S1132F006F726D5C647269766572735C736D635C19
S1132F107372635C66736C5F736D635F6D616E6126
S1132F206765722E63000000433A5C642064697331
S1132F306B5C776F726B5C70726F6A6563745C73E1
S1132F40646B5C6D63752D73646B5C706C6174662B
S1132F506F726D5C647269766572735C7274635CC3
S1132F607372635C66736C5F7274635F6972712EF3
S1132F70630000000A0D204E6F746573313A535795
S1132F80322063616E20626520757365642061730D
S1132F902053544F502F574149542F564C50532FC0
S1132FA0564C4C53782077616B65757020736F7540
S1132FB07263652100000000433A5C642064697315
S1132FC06B5C776F726B5C70726F6A6563745C7351
S1132FD0646B5C6D63752D73646B5C706C6174669B
S1132FE06F726D5C68616C5C73696D5C66736C5F59
S1132FF073696D5F68616C2E63000000433A5C6422
S1133000206469736B5C776F726B5C70726F6A6556
S113301063745C73646B5C6D63752D73646B5C705B
S11330206C6174666F726D5C68616C5C6770696F0B
S11330305C66736C5F6770696F5F68616C2E6800B3
S1133040433A5C64206469736B5C776F726B5C7089
S1133050726F6A6563745C73646B5C6D63752D7306
S1133060646B5C706C6174666F726D5C68616C5CDF
S11330706770696F5C66736C5F6770696F5F6861C6
S11330806C2E63000A0D202A2A2A2A2A2A2A2A2A8E
S11330902A2A2A2A2A2A2A2A2A2A2A2A2A2A2A2A8C
S11330A02A2A2A2A2A2A2A2A2A2A2A2A2A2A2A2A7C
S11330B02A2A2A2A2A2A2A2A2A2A2A2A2A2A2A2A6C
S11330C0200A00000A0D202A2A2A2A2A2A2A2A2A21
S11330D02A2A2A2A2A2A2A2A2A2A2A2A2A2A2A2A4C
S11330E02A2A2A2A2A2A2A2A2A2A2A2A2A2A2A2A3C
S11330F02A2A2A2A2A2A2A2A2A2A2A2A2A2A2A2036
S11331000A0000000A0D20632E456E61626C652082
S11331105254432061732077616B65757020736F1F
S1133120757263652C776169742033207365636FEE
S11331306E647320746F2077616B65757021000075
S11331400A0D204E6F746573323A5357332063610E
S11331506E20626520757365642061732053544F3B
S1133160502F574149542F564C50532077616B656B
S1133170757020736F757263652100000A0D204518
S11331806E746572206F6E65206B6579206E756D47
S113319062657220746F2063686F6F7365206C6F53
S11331A07720706F776572206D6F64653A20000038
S11331B00D5B6F75745352535D57616B6575702069
S11331C0626974207365742066726F6D206C6F770A
S11331D020706F776572206D6F64652065786974FF
S11331E00A0000007274635F6972715F6E756D62CC
S11331F06572203C2046534C5F4645415455524528
S11332005F5254435F494E544552525550545F43A4
S11332104F554E54000000000A0D4641494C2156BA
S11332204C5052206D6F6465206469646E2774206D
S1133230656E746572207375636365737366756C0C
S11332406C79210A0D00000030B401210268001DD0
S1133250002A0FD00368C318446808300C4202D017
S11332604D466D1E64191D6825601B1D241D121F0B
S1133270ECD0F8E730BC70476972714E756D6265C9
S113328072203C3D2046534C5F46454154555245BF
S11332905F494E544552525550545F4952515F4D07
S11332A0415800000A0D564C4C5330206D6F646534
S11332B0207769746820504F5220656E61626C6596
S11332C06420656E746572726564210A0D000000E5
S11332D00A0D564C4C5330206D6F64652077697429
S11332E06820504F522064697361626C6564206584
S11332F06E746572726564210A0D00006972714E04
S1133300756D626572203C3D2046534C5F464541D5
S1133310545552455F494E544552525550545F4995
S113332052515F4D4158000046534C5F464541544D
S11333305552455F494E544552525550545F495277
S1133340515F4D494E203C3D206972714E756D624E
S1133350657200006972714E756D626572203C3D44
S11333602046534C5F464541545552455F494E549F
S11333704552525550545F4952515F4D41580000D7
S11333806972714E756D626572203C3D2046534CE6
S11333905F464541545552455F494E544552525536
S11333A050545F4952515F4D415800007561727429
S11333B0496E7374616E6365203C2048575F4C50BE
S11333C0554152545F494E5354414E43455F434F18
S11333D0554E540075617274496E7374616E636501
S11333E0203C2048575F4C50554152545F494E533E
S11333F054414E43455F434F554E540075617274BA
S1133400496E7374616E6365203C2048575F4C506D
S1133410554152545F494E5354414E43455F434FC7
S1133420554E540010B5074979441831064C7C4474
S1133430163404E0081D0A68891888470100A1426F
S1133440F8D110BD0002000020020000696E737400
S1133450616E6365203C2048575F504F52545F496A
S11334604E5354414E43455F434F554E5400000064
S1133470696E7374616E6365203C2048575F4750E2
S1133480494F5F494E5354414E43455F434F554E58
S1133490540000000A0D20342E564C4C5330206D3D
S11334A06F6465207769746820504F5220656E619F
S11334B0626C6564210000000A0D20352E564C4CC8
S11334C05330206D6F6465207769746820504F52C3
S11334D02064697361626C65642100000A0D2043F5
S11334E068697020697320616C7265616479206910
S11334F06E20564C5052204D6F646520210A2000E6
S113350053746F70204D6F64652041636B6E6F77E9
S11335106C65646765204572726F722052657365CD
S1133520740A0000696E7374616E6365203C204800
S1133530575F504F52545F494E5354414E43455F79
S1133540434F554E54000000636C6F636B4D6F64C2
S1133550756C65203C206B53696D436C6F636B4DD8
S11335606F64756C654D617800000000636C6F6377
S11335706B536F75726365203C206B53696D436CAC
S11335806F636B536F757263654D61780000000063
S1133590636C6F636B44697669646572203C206B6D
S11335A053696D436C6F636B446976696465724DEE
S11335B061780000696E7374616E6365203C204815
S11335C0575F504F52545F494E5354414E43455FE9
S11335D0434F554E54000000696E7374616E636509
S11335E0203C2048575F4750494F5F494E53544150
S11335F04E43455F434F554E54000000696E73744B
S1133600616E6365203C2048575F504F52545F49B8
S11336104E5354414E43455F434F554E54000000B2
S113362038B504000025ED43AC4209D06946087062
S113363001220120FEF74AFC012801D1200032BDFD
S1133640280032BD13D7FFFF28000000E00000204F
S113365000000000F5FBFFFFE000000000F0FFFFAA
S113366000000020000000000A0D204B4C303320E5
S1133670506F776572204D616E616765726D656E1E
S11336807420546573742E000A0D4E6F726D616C54
S11336902053746F70206D6F646520656E7465725D
S11336A0726564210A0D00000A0D564C5052206DBB
S11336B06F646520656E74657272656420666972F4
S11336C07374210A20000000636C6F636B536F7581
S11336D0726365203C206B436C6F636B536F757230
S11336E063654D6178000000706F7765724D6F649B
S11336F0654E616D65203C206B506F7765724D6F30
S113370064654D61780000001700000F1700000F7A
S11337100300000F0C00000F1100000F1700000F32
S11337200700000F0900000F0A0D4C6F7720706F1F
S11337307765722064656D6F205374617274210A19
S11337400D0000000A0D5053544F5031206D6F642A
S11337506520656E746572726564210A0D0000004F
S11337600A0D5053544F5032206D6F646520656EBE
S1133770746572726564210A0D0000000A0D564CCE
S11337804C5331206D6F646520656E74657272658B
S113379064210A0D000000000A0D564C4C533320DE
S11337A06D6F646520656E746572726564210A0DBF
S11337B000000000436F7265204C6F636B757020CE
S11337C04576656E742052657365740A00000000C6
S11337D04C6F772D766F6C746167652044657465F2
S11337E063742052657365740A00000000000000D1
S11337F01F003B005A0078009700B500D400F30086
S1133800110130014E01000000F00BF8002801D036
S1133810FFF708FE0020C046C046FCF78FFE00F00C
S113382002F80120704780B500F002F801BD0000E5
S113383007463846FEF734FDFBE700000A0D203149
S11338402E4E6F726D616C2053544F50206D6F6417
S1133850650000000A0D20392E4E6F726D616C20D8
S113386057414954206D6F64650000000A0D564CA1
S11338705052206D6F646520656E74657272656464
S1133880210A20000A0D57414954206D6F646520B8
S1133890656E746572726564210A0D000A0D564CDA
S11338A05057206D6F646520656E7465727265642F
S11338B0210A0D000A0D564C5053206D6F6465208B
S11338C0656E746572726564210A0D000A0D577283
S11338D06F6E67206E756D62657220696E707574A7
S11338E0210A0D000A0D57616B6520757020746FF5
S11338F020564C5052204D6F64650A000A0D5761E2
S11339006B6520757020746F2052554E204D6F6486
S1133910650A00005761746368646F6728434F50F9
S1133920292052657365740A000000000D5B6F75F1
S1133930745352535D204C4C532065786974200AAB
S1133940000000000D5B6F75745352535D20564C9C
S11339504C53302065786974200A00000D5B6F7544
S1133960745352535D20564C4C533120657869741E
S1133970200A00000D5B6F75745352535D20564C42
S11339804C53322065786974200A00000D5B6F7512
S1133990745352535D20564C4C53332065786974EC
S11339A0200A000002488047024880470248004736
S11339B0512A00006D280000B13B000038B5050015
S11339C00C002000FFF72CFEA04200D000252800A8
S11339D032BD00000A0D20322E5053544F50312076
S11339E0206D6F64650000000A0D20332E5053547F
S11339F04F503220206D6F64650000000A0D206472
S1133A002E44697361626C652052544321000000A6
S1133A100A0D52544320656E61626C6564210A0D7F
S1133A20000000000A0D5254432064697361626C03
S1133A306564210A0D00000045787465726E616C3E
S1133A402050696E2052657365740A0066756E6352
S1133A5074696F6E20213D204E554C4C00000000CF
S1133A60000001000100010003010103050101033D
S1133A701800010F30203C3D206972714E756D6253
S1133A80657200000A0D20362E564C4C5331206DC1
S1133A906F6465000A0D20372E564C4C5333206D4D
S1133AA06F6465000A0D20382E564C5052206D6FFD
S1133AB0646500000A0D20612E564C5057206D6F2E
S1133AC0646500000A0D20622E564C5053206D6F21
S1133AD0646500004D444D2D41502052657365745A
S1133AE00A000000536F6674776172652052657333
S1133AF065740A00506F7765722D6F6E205265737E
S1133B0065740A0030203C3D206972714E756D6207
S1133B1065720000001F1C1F1E1F1E1F1F1E1F1E7C
S1133B201F000000001F1D1F1E1F1E1F1F1E1F1E23
S1133B301F00000030203C3D206972714E756D629B
S1133B40657200000600000F1700000F0A00000F46
S1133B500C00000F1700000F0900000F0700000FF2
S1133B601100000F1700000F0900000F0700000FDD
S1133B701100000F70696E203C20333255000000A4
S1133B8070696E203C2033320000000070696E20A2
S1133B903C2033325500000070696E203C203332E3
S1133BA05500000070696E203C2033320000000094
S1133BB0C046C046C046C046FFF726FE00F00F4090
S1133BC040F00F400090044000A0044000900440E6
S1133BD000A004400090044000A0044000F00F4006
S1133BE040F00F400B00000F0700000F009004404E
S1133BF000A0044001010000FFF7FEFFFFF7FEFFF5
S1133C00FFF7FEFFFFF7FEFFFFF7FEFFFFF7FEFFE4
S1133C10FFF7FEFFFFF7FEFFFFF7FEFFFFF7FEFFD4
S1133C20FFF7FEFFFFF7FEFFFFF7FEFFFFF7FEFFC4
S1133C30FFF7FEFFFFF7FEFFFFF7FEFFFFF7FEFFB4
S1133C40FFF7FEFFFFF7FEFFFFF7FEFFFFF7FEFFA4
S1133C50FFF7FEFFFFF7FEFFFFF7FEFFFDF7B8FBE0
S1133C60FDF7BFFBFFF7FEFFFFF7FEFFFFF7FEFFC9
S1133C70FFF7FEFFFFF7FEFFFFF7FEFFFFF7FEFF74
S1133C80FFF7FEFFFEF7A5FFFEF7AFFFFFF7FEFF0E
S9033BB110
