S01000007274635F64656D6F2E73726563C7
S1130000D8020020713C0000B93D0000BD3D000055
S113001000000000000000000000000000000000DC
S1130020000000000000000000000000C13D0000CE
S11300300000000000000000C53D0000C93D0000B4
S1130040CD3D0000D13D0000D53D0000D93D00006C
S1130050DD3D0000E13D0000E53D0000E93D00001C
S1130060ED3D0000F13D0000F53D0000F93D0000CC
S1130070FD3D0000013E0000053E0000093E000079
S11300800D3E0000113E0000153E0000193E000028
S1130090352E0000472E0000253E0000293E0000BA
S11300A02D3E0000313E0000353E0000393E000088
S11300B03D3E0000413E0000373500004F35000052
S1130400FFFFFFFFFFFFFFFFFFFFFFFFFE3DFFFFBB
S1130410F1B5A2B014001F00049100200D900AE071
S11304200498229A90470490002800D1CBE20D98BA
S1130430401C0D90641C2178002901D10D98C4E260
S11304402529EDD100200790089009900A900B907F
S11304500C9002E0010001200843641C217820294B
S1130460F8D023290ED02B2904D02D2907D03029E8
S11304700BD00DE001000220084380B2EDE701003B
S11304800420F9E701000820F6E701001020F3E753
S11304902A290FD1396839600A68091D39600F9219
S11304A0002A05D551420F9101000420084380B26F
S11304B0641C12E000210F910AE00F9A754B9A42D6
S11304C005D093009A185200511830390F91641CCA
S11304D021780A00303A0A2AEFD321782E2903D052
S11304E00021C9430E911EE0641C21782A2907D1FA
S11304F0396839600A68091D39600E92641C12E07B
S113050000210E910AE00E9A624B9A4205D09300A4
S11305109A185200511830390E91641C21780A003F
S1130520303A0A2AEFD302A90887257829005848C7
S11305307844FF305D3000F0C6FE002801D0641C12
S113054000E0002502A83A30057002A83A3000788D
S1130550682804D12178682901D1622005E06C283B
S113056007D120786C2804D1712002A93A3108708F
S1130570641C12A806902578641C280025382AD00B
S11305801C3800D1CFE0001F022800D8CBE013387C
S113059000D1EFE0093800D1C5E0801E00D157E159
S11305A0401E00D12BE1401E022800D8BBE0001FF2
S11305B000D124E1401F00D186E0401E00D1D9E0E3
S11305C0401E26D0C01E0BD0801E00D1D2E0C01E1B
S11305D000D1CFE046E101200790252012A998E040
S11305E0386838600568001D386005950E9E002E39
S11305F003D5280000F071FE09E032000021280034
S113060000F073FE002801D0401B00E03000089089
S113061034E1386838600268001D38600020C04347
S11306200021104002AA03C212A80590069B3C2593
S113063002A803C8002904D1002802D10E9A002A76
S113064014D06D1E01950207120F3032D2B23A2A2D
S113065000DB27325A5500090A071043090901D162
S1130660002803D0059A5E19B242EAD33C20401B0D
S11306700890591905910E9988420FDA081A0A90C0
S113068002A8008F0449014002A80187F6E000BFD8
S1130690C8350000FFFFFF7FEFFF0000002900D4F2
S11306A0ECE002A93831097814220A40102A00D05B
S11306B0E4E00F99079A891A0A9A891A0D1A012DEA
S11306C000DADBE00A95D9E002A83A300078622823
S11306D019D0682806D06A280CD06C281BD0712841
S11306E008D018E0386838600168001D38600D983B
S11306F00880C3E0386838600268001D38600D98CF
S1130700C11703C2BAE0386838600168001D386058
S11307100D980870B2E0386838600168001D3860D0
S11307200D980860AAE03A68D21D072082433A6017
S113073003CA3A6002AA03C2002903D50120079024
S11307402D200CE002A8008F810703D5012007901B
S11307502B2004E0C00704D501200790202012A913
S1130760087012A8079940180590290002A800F003
S1130770FBF983E002A83A3002786C2A0BD0712A84
S113078001D06A2A07D13B68DB1D072083433B6005
S113079003CB3B6005E0396839600868091D39609E
S11307A0002102AB03C3682A03D102A803C880B2A4
S11307B00BE0622A03D102A803C8C0B205E0742A80
S11307C001D07A2A04D102A803C8002102AA03C2D4
S11307D002A838300078000731D502A803C80029E0
S11307E001D100282BD020202843782827D130207D
S11307F012A908700220079012A845701FE0390062
S113080002A83A30007800F0E2F802AA03C202A873
S1130810002904DA0798411C07912D210DE0008F6F
S1130820810704D50798411C07912B2105E0C007D7
S113083005D50798411C0791202112AA115412A82A
S1130840079940180590290002A800F0F4F815E073
S113085001200790386838600168001D386012A8CC
S113086001700BE001200790252012A90870002DCB
S113087004D00798411C079112A90D540F980799A9
S1130880401A0A99401A0899401A0B99401A099972
S1130890401A0C99401A019002A838300078400799
S11308A011D4202069460870002509E001236A4616
S11308B002A9229800F0EDFC002800D083E06D1C12
S11308C001988542F2DB079E12AD0BE0297804986B
S11308D0229A90470490002875D00D98401C0D90E2
S11308E06D1C761E002EF1D13020694608700A9ED8
S11308F0002508E001236A4602A9229800F0C9FCF9
S1130900002860D16D1CB542F4DB089E059D0BE008
S113091029780498229A90470490002853D00D987F
S1130920401C0D906D1C761E002EF1D130206946BE
S113093008700B9E002508E001236A4602A922984C
S113094000F0A7FC00283ED16D1CB542F4DB099EE3
S11309500598089945180BE029780498229A90473D
S1130960049000282FD00D98401C0D906D1C761E0D
S1130970002EF1D13020694608700C9E002508E055
S113098001236A4602A9229800F083FC00281AD1A8
S11309906D1CB542F4DB02A838300078400700D45F
S11309A049E5202069460870002500E06D1C019887
S11309B0854200DB3FE501236A4602A9229800F044
S11309C068FC0028F2D00020C04323B0F0BD0A0028
S11309D0622822D0682819D06A2808D06C2823D02D
S11309E0712804D074281FD07A2808D01CE013681A
S11309F0DB1D07208343136003CB1360704711682A
S1130A0011600868091D11600021704711681160A8
S1130A100868091D116000B20BE0116811600868D4
S1130A20091D116040B204E0116811600868091DD5
S1130A301160C1177047F3B583B000690090684630
S1130A40027C6F2A01D1082406E020211143782971
S1130A5001D00A2400E010243C25039803C80600B2
S1130A600F00642A01D0692A07D1002905DA002081
S1130A700021801BB94106000F00002F12D1002E67
S1130A8010D10398006B00280CD1082C3CD103989A
S1130A9038300078000737D53B25302000993B31AA
S1130AA0087031E06D1E0195300039002200E31713
S1130AB000F027FC3032D2B23A2A03DB6846007CCD
S1130AC05138121800984255300039002200E317BB
S1130AD000F017FC06000F0001D1002E05D003988A
S1130AE0C068009949198842DCD3082C0CD10398BA
S1130AF038300078000707D50098405D302803D0CF
S1130B006D1E3020009948553C20401B0399886194
S1130B1000994919039AD1600399096B884209DA4B
S1130B20081A039908620398008F0E49014003983C
S1130B30018715E0002913D5039938310978142267
S1130B400A40102A0CD10399496B039A5269891AF5
S1130B50039A126A891A0D1A012D01DB03980562A2
S1130B6005B0F0BDEFFF0000F3B591B006AD03C8CA
S1130B7002AA03C212A8007820210143009161292E
S1130B800BD01198006B002801D5062003E004D196
S1130B90672902D10120119908631198416848001E
S1130BA0400DAA4A904225D1080310D1119800683B
S1130BB000280CD103201199886112A800786138AB
S1130BC01A2842D3234878448A3000900BE003204B
S1130BD01199886112A8007861381A2831D31E4807
S1130BE0784474300090032200991198C06800F092
S1130BF0BDFBF1E1012817DA119800F0E5FB0128AB
S1130C0012DB002700260098612832D11198C068B1
S1130C1030210170401C411C119AD16012A909783D
S1130C2061291FD178211EE011994968884A0A4038
S1130C3088491143119A51608749461A0027FF4396
S1130C40E1E7064878441430CCE70548784410308E
S1130C50BBE700BF183000000C3000000430000077
S1130C60083000005821017011984069801C1199C6
S1130C704861002F03D1002468468780A2E10098D0
S1130C80612800D09FE01198046B002C01D5212429
S1130C9000E0641C24B2601C0090119803C804AAEC
S1130CA003C202A803C80022002300F0AFFB04A87B
S1130CB003C802D280221206514002AA03C2301F86
S1130CC06946888000270F7606AE761C00E0F61D84
S1130CD00098012830DB02A803C80022002300F09A
S1130CE0AEFB29D21C2102A800F0C2FB02A803C853
S1130CF000F04CFC05000098C01F009001280ADB9E
S1130D00280000F081FC02000B0002A803C800F0D8
S1130D10F2FC02AA03C2F61D072004E0761E29078E
S1130D20090F31702D11012D01DB401EF6D5401E37
S1130D30CDD4761E3770FAE706A8401C311A06ADEA
S1130D406D1CA14200DA0C0024B2200032D4884287
S1130D5005DA06A909184978082900DB0F2706A92E
S1130D60091801E0641E491E401E0A78BA42F9D0EF
S1130D700F2F04D106A909184A78521C4A7000287A
S1130D8006D506AD641C019800B2001D6946888032
S1130D9024B2601E0ED429180A783032D2B23A2A0C
S1130DA003DB12AB1B783A3BD2180A70401E491E73
S1130DB00028F1D51198006B002800D402E1601ED0
S1130DC011990863FEE002A803C80022002300F082
S1130DD01DFB06D202A803C880221206514002AAB3
S1130DE003C236B27D4870437D4900F011FD694667
S1130DF088800720019909B2421A00207949012A02
S1130E0020DB049202AA30CA00260F000498C0070F
S1130E1007D532003B002000290000F053FD0400F8
S1130E200D000498401004903000390032003B005B
S1130E3000F048FD06000F0004980028E6D102A83F
S1130E4030C028E054420026674F18E0FF07000036
S1130E50FFFF0F800000E03FFE030000E00707D51E
S1130E6004A803C832003B0000F02CFD06000F006C
S1130E70641004A803C804AA0CCA00F023FD04AA41
S1130E8003C2002CEAD102A803C832003B0000F0E0
S1130E90DBFD02AA03C20098662803D1019800B2C0
S1130EA00A3000E006201199096B081804901428F0
S1130EB001DB1320049030206946087606AC641CDC
S1130EC0049801283ADB02A803C800F071FB05006E
S1130ED00834042628000A2100F09DFC0F00280095
S1130EE00A2100F098FC0500641E303727700A219F
S1130EF000F091FC0F0028000A2100F08CFC050092
S1130F00641E30372770761EE4D1083404980838FC
S1130F1004900128D4DB02A803C800F049FB00F0C8
S1130F207DFB02000B0002A803C800F0E4FB0022D2
S1130F302E4B00F0C7FC02AA03C2C4E706A8401C5B
S1130F40201A06AD6D1C6A4605E0401E019909B2DF
S1130F50491E91806D1C29783029F6D000996629A4
S1130F6003D1019909B2491C04E0652901D1012189
S1130F7000E00021119A126B541824B2A04200DA46
S1130F80040024B221001DD4814204DA685C3528AF
S1130F9001DB392000E030206A1800E0641E521E94
S1130FA0491E13788342F9D0392802D1685C401C69
S1130FB06854002906D56D1E641C019800B2401CBB
S1130FC069468880019800B2009023B22A0012A8D2
S1130FD00178119800F00CF813B0F0BD977500007B
S1130FE0A0860100000024400000F03F84D7974110
S1130FF0F3B585B014001D00066B012D01DA01253F
S1131000B0A4202008430C9F662801D17F1C18E05F
S1131010672800D095E03FB20321C9438F4200DA2C
S113102093E0B74200DB90E07F1C059838300078ED
S1131030000702D4B54200DA2E003FB2F61B00D5F9
S113104000260598C06805998B693FB2012F28DAFC
S1131050591C3022C254012E04DA059A383212780F
S1131060120702D52E224254491C059A91617942F5
S11310708E4200DA77423FB27942059A5162F619FC
S1131080AE4200DA35002DB20599CD612A00210067
S1131090059B9B69C01800F069F9701B059988626B
S11310A0D9E0BD421FDA2A002100C01800F05EF921
S11310B0059989694919059A9161781B059A5062C5
S11310C0012E04DA059838300078000708D52E2060
S11310D0059AD26850540598C069401C0599C861A6
S11310E005988662B7E03A002100C01800F03EF986
S11310F005988069C019ED1B012E04DA0599383171
S11311000978090704D52E21059AD2681154401C88
S1131110059988612DB2AE4200DA35002DB22A005D
S1131120E1190598C068059B9B69C01800F01EF979
S113113005988069401905998861701B0599486272
S113114089E0612914D1702015E0B54205DA0599CA
S113115038310978090700D42E00761E00D5002600
S11311606846007E672801D1652004E0452002E03E
S1131170412902D1502069460876059881694B1CA3
S1131180C06822784254611C012E07DA059A38326D
S11311901278120702D40598836118E02E22C254F3
S11311A05B1C059A9361012E11DB6D1E2DB2AE42BC
S11311B000DA35002DB22A00C01800F0D7F80598DF
S11311C08069401905998861701B059948620598E2
S11311D0C0680599896944186846007E2070641CBB
S11311E03FB2380003D42B202070641C03E02D216F
S11311F02170641C4742002502AE08E00A226846BA
S113120000F083FC01983070009F6D1C761C39B28D
S11312100129F3DA022D08DA6846007E2021014311
S1131220652902D130202070641C002D09D13020A2
S11312302070641C07E06D1E02A8405D30302070F1
S1131240641C012DF7DA0598C0680599896940186E
S1131250201A0599C8610598383000781421014096
S1131260102914D105984069059989694018059990
S1131270496A40180599C96940180599896A40184E
S11312800599496B884202DA081A0599086207B081
S1131290F0BD79B50E0014001D00002005E0F06AD1
S11312A0401CF0620020641C6D1E002D08D02178C3
S11312B0B068009A9047B0600028F0D10020C04385
S11312C076BD00003000C9B200E0401C02788A42BA
S11312D002D0002AF9D100207047010000E0491C27
S11312E00A78002AFBD1081A7047C9B201E0401CF1
S11312F0521E002A03D003788B42F8D17047002095
S11313007047124224D0994228D970B500251B4257
S113131002D00C00002109E0002401264918644190
S1131320944200D3A41A7641F8D33100012601E097
S1131330764109D2001864416D41A41A9D41F7D247
S1131340A4185D41B619F5D3300022002B0070BDFE
S11313501B42D8D108B500F0E9FB08BD01D1904289
S1131360D3D202000B00002100207047124207D0A4
S11313708B0706D00B78491C0370401C521EF7D80B
S11313807047830706D00B78491C0370401C521E1B
S1131390F9D1704770B4103A03D378C9103A78C0C1
S11313A0FBD2530701D318C918C001D508C908C016
S11313B0D20704D30B880380891C801C002A01D522
S11313C00B78037070BC704730B401004B68802206
S11313D012061A4001201B031B0B4B600BD10B6838
S11313E0002B08D10DE00B686400DD0F25434D6030
S11313F05B000B60401E4C68E302F4D523031B0B17
S11314004B604B681A434A6030BC704730B40124C7
S113141064054D00EC420BD85D00EC4208D80C008A
S11314201C4364000443144304D2994200D1904203
S113143030BC7047FCD08B42FAD18242F8E730B41A
S1131440012464054D00EC420BD85D00EC4208D841
S11314500C001C4364000443144304D28B4200D1A7
S1131460824230BC7047FCD09942FAD19042F8E7EE
S113147070B504000D0060684000400D3F4EB0425E
S113148007D16068000302D12068002816D002202A
S113149070BD002804D12000FFF796FF01286BDA05
S11314A0012D0DDB311A8D420AD36068002802D564
S11314B00020334901E00020310503C4012070BD40
S11314C04142A942616806DA2E4A0A4028180005FA
S11314D01043606047E080221206114062681203E4
S11314E0120B80235B0313436360401E2D180020FE
S11314F02A003532352A02D36160206070BD002293
S11315001E23DB439D4204DA20352268636823608E
S11315106060684211D0521E9241D243D20F202300
S11315201B1A25689D402A432568C54066689E406D
S11315302E4326606368C34063606068084360604C
S11315401148824206D28020000682420ED12078C1
S1131550C0070BD52068401C20602068002805D1F6
S11315606068401C60600020C04370BD60688842B1
S1131570F9D120680028F6D1002070BDFF070000D3
S11315800000F0FFFFFF0F8001000080F4464A18BE
S113159005D200F00FF801D580174008604700F02D
S11315A009F80121C907884200D908004042604770
S11315B04A1812D2400DC90208430121C907084341
S11315C0520D40210901521A521C06D452421F32B4
S11315D001D4D0407047C01770470020704730B422
S11315E0012100220368001D002B0BD00468001D9C
S11315F00C4202D04D466D1E64192260241D1B1F2F
S1131600F0D0FAE730BC7047010009D5F4464042F7
S113161000F006F80122D20711436047010000BF21
S113162042221201D21E004207D002D4521E0018D8
S1131630FCD5C10A40051205891870478B4200D1B8
S1131640824205D98446100062468C4619006346DE
S1131650DF184C18640D7F0D3AD0661C760537D020
S1131660E61B352E34DCDB022B43DB0A0C0DC902EE
S11316702943C912202E0DDB1700203E06D01F007F
S1131680F741F3405F400026012A7741C0187141B9
S11316900DD217E01700F741F2405740F3415A408A
S11316A0B340F3405A400026801859410AD3A21C83
S11316B052050FD0C207012F724117004008CB0713
S11316C018434908641C24054208AF417041614134
S11316D0F0BC7047641C21050020F9E76B4010E062
S11316E06B40ABE7F742F3D1E943F1E72442EFD192
S11316F000200021ECE7F0B40125ED070F005F4066
S1131700EED40C00871A9C4105D2C01BA141D2190A
S1131710634169406B40AE0ADF184C18F442E1D2D1
S1131720640D7F0DE2D0E61B362ED1DCDB022B43A9
S1131730DB0AA4460C0DC9022943C90A012E28DC80
S113174004D1D6075208DF073A435B08EF0A764212
S11317509041994114D039423BD1B6194041494195
S1131760761C394204D1761C001849413942FAD01A
S1131770B9436746B74208D9A41B24052143A7E708
S11317800042EAD13642E8D1A2E7E40AE1070020A8
S11317909EE7202E0BDD203E1F00F340F7415F4003
S11317A0012A002257417E42984191410BE01700E3
S11317B0F741F2405740F3415A40B340F3405A4096
S11317C07E42904199410A0303D2641EB6194041F6
S11317D049410027641E24054208AE417841614115
S11317E0F0BC7047F446002804D4494200F013F8D2
S11317F0404260474042002905D45FD000F00BF816
S1131800404249426047494200F005F84942604776
S113181003460B43E6D40022030A8B420BD203098E
S11318208B4219D243088B422ED2411A00D2014670
S1131830524110467047FF2209023FD012068B42E4
S113184005D3121209028B4201D3121209020309B1
S11318508B4219D300E0090AC3098B4201D3CB019F
S1131860C01A524183098B4201D38B01C01A5241E1
S113187043098B4201D34B01C01A524103098B42E5
S113188001D30B01C01A5241C3088B4201D3CB00D0
S1131890C01A524183088B4201D38B00C01A5241B3
S11318A043088B4201D34B00C01A5241884200D3F3
S11318B0401A5241CFD201461046704708B500F095
S11318C037F908BDF0B50E005E400125ED072E4046
S11318D0B446AE0ADF184C18F44208D2F7420ED2CE
S11318E0640D01D07F0D12D100206146F0BD05D1F9
S11318F0F74201D87F0D05D10020C143F0BDFBD1D3
S1131900640DF9D00020C143490549088FE0E4196A
S1131910C902DB0229432B43DB0A460DC0023143D3
S11319208E4630B487B295B27D432E0CADB2140C02
S11319307C43A419260C240425439CB27C43A4199B
S1131940190C7943270CC919A4B20F043C43090CA0
S1131950000C97B247432E0CBE193543ADB2170C99
S11319604743360CBF19A6B2BF193E043543240CB5
S11319703E0C36199FB24743BF19BCB23E0C8919BD
S11319801F0C47437F183E043443390C704680B221
S113199097B247432E0CBE193543ADB2170C4743DB
S11319A0360CBF19A6B2BF193E043543240C3E0CB5
S11319B036199FB24743BF19BCB23E0C89191F0C9C
S11319C047437F183E043443390C77463F0C90B2AA
S11319D078432E0C80190604ADB22E43050CA0B238
S11319E02D18120C7A435019020C80B2240CA4183E
S11319F09AB27A43121914042043120C89181B0C4E
S1131A007B43C91830BCEF0A394203D1B6194041AF
S1131A104941641E6F12BF0DE41B0BDBFF19BC426E
S1131A2011DA240500274208AE4178416141664637
S1131A303143F0BD641C05D1401C6141CF0201D388
S1131A404908F4E750E75DE7F0B40E005E40012575
S1131A50ED072E40B446AE0ADF184C18F4423BD2D0
S1131A60F74241D2640D43D07F0D38D0E41BC90244
S1131A70DB0229432B43CF0ADB0A0600B61A9F4137
S1131A8004D2641EB6197F41B6185F416812800DF6
S1131A9024180018844222DAE80C0021B6197F4188
S1131AA0B61A9F4102D2B6185F413F1C40414941DA
S1131AB0F4D3241C21DD2405B6197F41B61A9F41B5
S1131AC005D33743C60737430026012F70416141D0
S1131AD066463143F0BC7047FCD1F74205D2002082
S1131AE0C14349054908F3E704D00020C143F1E7A5
S1131AF07F0DFAD000206146ECE72442FAD1401C65
S1131B0061410F03F6D30020E2E77CB504000E0028
S1131B10150030002900FFF77BFE00904543701B41
S1131B200190684603C803C476BD1E1F7047704702
S1131B307047000038B50C000021002500E0491C66
S1131B404F4A04234B43D25C182A0AD04C4A04233C
S1131B504B43D25CC0B28242F1D149480422514382
S1131B604518002D01D101201CE06878002807D019
S1131B702100A87800F025F8002804D0012011E005
S1131B8000F0DCF920606946E87800F0CAFA002821
S1131B9007D120680099491CFFF73DFE2060002012
S1131BA000E0042032BD80B5D2B2C9B2354BC0B218
S1131BB0185C00F021FA002801D1002000E0022086
S1131BC002BD10B50C00C0B20100002905294CD992
S1131BD0891F1AD0491E1DD0491E1ED0491E1FD070
S1131BE0491E20D0491E22D0491E23D0091F25D0CA
S1131BF0491E27D0491E29D0491E2AD0491E2BD060
S1131C00491E2CD0491E2DD034E0802000022060D3
S1131C10002010BDA7482060FAE7A7482060F7E736
S1131C20A6482060F4E7802000022060F0E701204D
S1131C302060EDE7FA2080002060E9E700F07EF9FB
S1131C402060E5E700F069F92060E1E79C48206046
S1131C50DEE79C482060DBE79B482060D8E79B4890
S1131C602060D5E79A482060D2E72100C0B2FFF790
S1131C7061FFCEE7974820600120CAE7000000001A
S1131C80C83C000044000020F2B584B007000020E6
S1131C90029000200190002500240026FFB2132F9B
S1131CA007DBA02252008C498C4800F07CFA00F03B
S1131CB079FA8B48FFB2C55DEDB22800002804D044
S1131CC0032804D0062804D005E00E2503E00F25E0
S1131CD001E00C25FFE700A9491C2800C0B200F070
S1131CE0EDF9002801D00320E2E07E48EDB20421A2
S1131CF04D434559002D01D10320D9E06846407871
S1131D000421484328184078002846D0694668468C
S1131D10407804225043285C00F0D0F9002801D018
S1131D200320C5E06F486946497804225143695C41
S1131D30042251434458002C01D10320B8E06846E2
S1131D400078042148432018407800281FD000A9B7
S1131D50891C6846007804225043205C00F0AEF9E8
S1131D60002801D00320A3E05E48694609780422D4
S1131D705143615C042251434658002E01D1032093
S1131D8096E06846807804214843305C0AE068465F
S1131D90007804214843205C04E06846407804212C
S1131DA04843285C0499C0B2FFF70BFF002801D018
S1131DB001207DE068464078042148432818807853
S1131DC000281CD068464078042148432818C0786D
S1131DD0C0B2052849D007283ED009284ED00B2888
S1131DE031D00D2802D00E2851D055E001A90D2084
S1131DF000F097F902A90C2000F093F94CE0002CB4
S1131E000ED06846007804214843201880780028C2
S1131E1006D068460078042148432018C078D7E7E4
S1131E20002E0ED06846807804214843301880780C
S1131E30002806D068468078042148433018C078CA
S1131E40C6E7002034E001A90B2000F06AF902A9DA
S1131E500A2000F066F91FE001A9072000F061F9EB
S1131E6002A9062000F05DF916E001A9052000F0A2
S1131E7058F902A9042000F054F90DE001A9092041
S1131E8000F04FF902A9082000F04BF904E001A981
S1131E900E2000F046F9FFE7049800680299491CF7
S1131EA048430199491CFFF7B6FC049908600020D7
S1131EB005B0F0BD8038010081380100006CDC02FF
S1131EC0672B0000CE5600003582000036820000E9
S1131ED09CAD000003D9000044370000C83B00005B
S1131EE030000020700000202C480078C0B27047F9
S1131EF02B480078C0B270472A480078C0B27047B7
S1131F0029480078C0B2704780B5FFF7F1FF012877
S1131F1001D1274800E0274802BD38B5FFF7ECFFA0
S1131F200500FFF7EDFF0400FFF7EEFF0121A940D4
S1131F300122A2405143FFF76EFC32BD10B50024CC
S1131F40FFF7D2FF002802D1184C200010BDFFF784
S1131F50CBFF012818D1FFF7CBFF012809D10124B9
S1131F60FFF7CAFF844021001148FFF751FC040029
S1131F70EBE701210C00FFF7BFFF210081400D4872
S1131F80FFF746FC0400E0E7FFF7AEFF022802D1AA
S1131F9080242402D9E72000D8E7000000400E5333
S1131FA0014006500840965018401650006CDC0260
S1131FB000127A0080841E0010B5002200E0521C3A
S1131FC06C4B0C2454431B5D282B13D0694B0C24FD
S1131FD054431B5DC0B28342F1D1664B0C2454437D
S1131FE01B195B78C9B28B42E9D162480C214A4380
S1131FF0801800E0002010BD70B505000E0014002C
S11320000020EDB2282D06DB54225B495B4800F02A
S1132010CAF800F0C7F83100C9B22800C0B2FFF70F
S1132020CBFF002811D0E4B2002C06D04168096827
S113203082680A434068026005E041680968826872
S1132040914340680160002000E0022070BD70B53B
S113205006000C000025F6B2132E06DB9E2246492C
S1132060474800F0A0F800F09DF8F6B2092E08D019
S11320700A2E0BD00B2E0ED0112E11D0122E14D0EE
S113208018E0E4B2A0063F49086014E0E4B2200678
S11320903D4908600FE0E4B2A0043C4908600AE04E
S11320A0E4B260013A49086005E0E4B2200139492C
S11320B0086000E003252800C0B270BD70B50600BA
S11320C00C000025F6B2132E07DB902252002A4999
S11320D02B4800F068F800F065F8F6B2092E08D035
S11320E00A2E0AD00B2E0CD0112E0ED0122E10D088
S11320F013E024480068207010E023480068207032
S11321000CE022480068207008E021480068207034
S113211004E020480068207000E003252800C0B2D5
S113212070BD70B506000D000024F6B20F2E07DB5B
S1132130862292001049184800F035F800F032F871
S113214000202860F6B2002E04D0032E06D00E2EF6
S113215008D00AE011480068286007E010480068C9
S1132160286003E00120286000E004242000C0B2BD
S113217070BD00002432000038380000843A0000AA
S1132180A83A000004800C5D04800C5C00700C59BB
S11321900480945204800452CC3A000044801C5EB3
S11321A044801458704700B583B0009101920290A6
S11321B06A4604491820ABBE002801D100F004F897
S11321C003B000BD1010020080B5012000F002F839
S11321D001BD000080B5C046C046024A1100182067
S11321E0ABBEFBE7260002000121C006C00E814001
S11321F07F480160704770B505000C001600022D81
S113220006D37F2268496948FFF7CDFFFFF7CAFF6D
S1132210202C06D3802264496548FFF7C4FFFFF7EA
S1132220C1FF744804214D43405904214C43001913
S1132230802149050143F6B20E6070BD70B50500FA
S11322400C001600022D06D38F2257495748FFF77A
S1132250AAFFFFF7A7FF202C06D390225249544827
S1132260FFF7A1FFFFF79EFF624804214D43405949
S113227004214C430019842149050143F6B270003E
S1132280086070BD70B505000C001600022D06D361
S1132290A12245494548FFF786FFFFF783FF202C1D
S11322A006D3A22240494248FFF77DFFFFF77AFF99
S11322B05F4804214D43405904214C4300198821AF
S11322C049050143F6B2B000086070BD70B5050061
S11322D00C001600022D06D3B72233493348FFF70A
S11322E062FFFFF75FFF202C06D3B8222E49304847
S11322F0FFF759FFFFF756FF3E4804214D4340596D
S113230004214C430019902149050143F6B23001E0
S1132310086070BD70B505000C001600022D06D3D0
S1132320DD2221492148FFF73EFFFFF73BFF202C28
S113233006D3DE221C491E48FFF735FFFFF732FFA4
S11323403B4804214D43405904214C430019982132
S113235049050143F6B2B001086070BD70B50500CF
S11323600C001600022D07D3B82252000E490F4864
S1132370FFF719FFFFF716FF202C07D3FF22723255
S113238009490B48FFF70FFFFFF70CFF1948042119
S11323904D43405904214C4300194D490143F6B2C1
S11323A03004086070BD000078350000F03A000089
S11323B0583D000038B504000D00022C06D3D2228B
S11323C044494548FFF7EFFEFFF7ECFE202D06D306
S11323D0D32240494148FFF7E6FEFFF7E3FE012020
S11323E0A8403F49042254430959C86031BD000044
S11323F000E100E0983D000010B5040064B2002C38
S113240006D5582237493848FFF7CDFEFFF7CAFEF4
S113241064B2202C06DB592232493448FFF7C3FE4C
S1132420FFF7C0FE200040B2FFF7DEFE10BD000043
S1132430983D000038B505000C00002D09D003E0DC
S1132440280000F013F8083528680021C9438842A1
S1132450F6D1002C09D003E0200000F04BF80C3436
S113246020680021C9438842F6D131BD70B504000B
S11324702068000AC5B22078C6B201222900C9B278
S11324800220FFF790FB00223100280000F098F8AA
S1132490227931002800FFF7D1FE6279310028004B
S11324A0FFF7A9FEA27931002800FFF70FFFE279B8
S11324B031002800FFF752FFE079002807D00C48CC
S11324C04057002803D00A484057FFF795FF70BDD6
S11324D000001818D4350000143B0000643D0000CF
S11324E0903D00002C340000DC3C00006839000002
S11324F02A1B000070B504002068000AC5B22078C9
S1132500C6B201222900C9B20220FFF74CFB012206
S11325103100280000F054F862683100280000F00F
S113252084F8227A31002800FFF7ACFE627A310089
S11325302800FFF7EFFE70BD80B50100090ACAB29A
S1132540C1B21000FFF736FF01BD000038B504002A
S11325500D00022C06D3B82245494648FFF723FE56
S1132560FFF720FE202D06D3B92241494248FFF748
S11325701AFEFFF717FE0120A840404904225443E5
S11325800959486031BD38B504000D00022C06D34A
S1132590C52237493748FFF706FEFFF703FE202D13
S11325A006D3C62232493448FFF7FDFDFFF7FAFD92
S11325B00120A8403149042254430959886031BD9F
S11325C070B504000E001500022C06D32D222C49F0
S11325D02848FFF7E8FDFFF7E5FD202E06D32E225D
S11325E027492548FFF7DFFDFFF7DCFDEDB2012D9C
S11325F00DD1224804216143405840690121B14072
S113260001431E4804225443005941610CE01B4815
S113261004216143405840690121B140884317496E
S1132620042254430959486170BD70B506000D0079
S11326301400022E06D3422211490E48FFF7B3FDBF
S1132640FFF7B0FD202D06D343220D490A48FFF7BA
S1132650AAFDFFF7A7FD002C04D029003000FFF7E6
S113266075FF03E029003000FFF78DFF70BD000007
S11326707C380000383B0000703D0000A83D00009D
S1132680C038000038B505000C00002D06D02F22FC
S11326908C498D48FFF787FDFFF784FD280000F083
S11326A001F9280000F022F962682168280000F08E
S11326B02BF8002801D0012025E0A17A280000F0A1
S11326C081F8002801D003201DE0217A280000F0C1
S11326D095F8617A280000F0ADF8002801D00420B4
S11326E011E0A06802009201D20FA0680100C901A4
S11326F0C90F280000F0B0F8280000F0C1F8280045
S113270000F0E4F8002032BDF2B582B014000028D5
S113271006D06B226B496C48FFF745FDFFF742FD7D
S11327200425029821006943FFF775F80600029812
S11327302900B6B27143FFF76EF8844202D2001B3F
S1132740009001E0201A0090052709E0201A009962
S1132750814204D30090FFB23D00684686887F1C06
S1132760FFB2212F12DA02982100FFB27943FFF75A
S113277052F8694688800298FFB26946898879438D
S1132780FFF749F88442E1D2001BE0E7200064210E
S1132790FFF741F8032148430099814210D22800F1
S11327A0001F042803D280208002584908606D1E4F
S11327B0280657490860B6B256480660002000E073
S11327C00220FEBD10B50C00002806D0E7223D49CA
S11327D03D48FFF7E8FCFFF7E5FCE4B2022C04D126
S11327E0802080054C49086006E0E4B220014B4992
S11327F00860002048490860002010BD10B50C0096
S1132800002806D0FA222F492F48FFF7CCFCFFF707
S1132810C9FCE4B2002C03D100204149086008E05F
S113282002203F490860E4B22000C007C00F3D49C0
S1132830086010BD10B50C00002807D0FF2212322A
S113284020492148FFF7AFFCFFF7ACFCE4B260037A
S113285035490860002010BD38B50D00140000286B
S113286007D08E22520017491748FFF79CFCFFF748
S113287099FC28072D49086020072D49086031BDBF
S113288080B5002807D0952252000E490E48FFF764
S11328908AFCFFF787FC2748006880210903264A41
S11328A0116001BD80B5002807D09F225200054960
S11328B00548FFF778FCFFF775FC00201E49086007
S11328C001BD000030360000C039000080B500288A
S11328D007D0FF22523219491948FFF764FCFFF769
S11328E061FC8020C0021749086001BD80B5002842
S11328F007D0FF225C3211491148FFF754FCFFF75F
S113290051FC00200F49086001BD000000408558BB
S11329100040255C004065500040855E084005523B
S11329200840855008400550004085560440055E27
S11329300840055E044005400840855930360000D3
S1132940C0390000084005596949096801607047A9
S113295000B501000020814A1268002A03D10868EA
S1132960634908600120C0B200BD00B50100002029
S11329707A4A1268002A03D108887949086001203C
S1132980C0B200BDC0B20002764908607047C0B250
S11329900001724908607047017817220A407249A1
S11329A00A60017880221140704A11606E490968FA
S11329B00160704780B5002801D0FFF7EDFF01BD2D
S11329C07CB504000D000026002C02D13000C0B2FA
S11329D027E0200000F08EF80600F6B2002E1ED08C
S11329E001A9200000F0C4F80020FFF7D0FF002068
S11329F0694608806846FFF7B8FF0600F6B2002E65
S1132A0003D001A8FFF7A4FF06003000C0B228429B
S1132A1005D00120FFF7B6FF0120FFF7B8FF300013
S1132A20C0B276BD10B582B00400002C08D00020DE
S1132A3000906846FFF788FF2100684600F00EF812
S1132A4013BD80B50120FFF79DFF0120FFF79FFF15
S1132A5001BD80B50020FFF79AFF01BD70B50C00E1
S1132A60066830006049FEF7D6FE050030005E4976
S1132A70FEF7D1FE0E003000E1210901FEF7CBFE86
S1132A80E0803000E1210901FEF7C5FE0E003000B0
S1132A903C21FEF7C0FE208130003C21FEF7BBFE46
S1132AA0A17252482080FF206E3001E0FF206E307A
S1132AB0A84209D22D1A2088401C20802078800743
S1132AC0F4D1B7204000F3E72078800701D04849CB
S1132AD000E04849012002E00A5CAD1A401C0D28C0
S1132AE003D20A5CAA42F7D36080A58070BD0000BF
S1132AF000D0034000B5010000200A883B4BD21AE5
S1132B00822A0BD248880D2808D24888002805D08C
S1132B108888202802D28888002801D1002000E07B
S1132B200120C0B200280BD00A78920708D0304A9E
S1132B304B88D25C898892B28A420CD200200AE087
S1132B40C0B2002807D02B4A4B88D25C898892B245
S1132B508A4200D20020C0B200BD000014D003524B
S1132B6004D07B5010D003541CD003401CD083539A
S1132B7070B504000D0020881F494018FF216E31F4
S1132B80484328602E6820880421FEF741FE1B4933
S1132B904018301828602868194962880223534372
S1132BA0C95A401828602868A188401828602078ED
S1132BB0800705D16088032802D22868401E286057
S1132BC0286809494843E188E12212014A438018F0
S1132BD021893C224A438018A17A40182860286839
S1132BE0401C286070BD000080510100B207000045
S1132BF0EC3C0000FC3C00004EF8FFFF14FEFFFF1D
S1132C00083C0000C0B200025E490860704780B50D
S1132C10FF200E30FFF790FC01205B49087001BDD6
S1132C2000B589B004A859491422FEF7B3FB00F09B
S1132C30B5F800F0D5F856490020FFF7FBFB012258
S1132C4000211B20FEF7AFFF0C2001A9888005207E
S1132C5001A9C880162001A908810B2001A9488078
S1132C60002001A988724B4869468880FFF7F1FE6D
S1132C700120FFF7C7FF4849012000F0EDF80021CB
S1132C8001A8FFF79DFE002803D10020C04309B02E
S1132C9000BD002000900098102101430091684677
S1132CA0FFF788FEFFF7CDFE04A800F009F93AE02B
S1132CB0202004A9887101A800890A21FEF7A8FD33
S1132CC0303004A9C87101A800890A21FEF7A0FDCB
S1132CD0303104A80172202004A94872202004A9DC
S1132CE08872202004A9C87201A8807A0A21FEF7FC
S1132CF08FFD303004A9087301A8807A0A21FEF7F9
S1132D0087FD303104A84173202004A9887353201F
S1132D1004A9C873652004A90874632004A948742D
S1132D2004A800F0CDF8184800780028FBD0002053
S1132D30154908700D2069460874202004A94870BC
S1132D40202004A98870202004A9C87001A8FFF7D6
S1132D5069FE01A8C0880A21FEF75AFD303004A993
S1132D60087101A8C0880A21FEF752FD303104A879
S1132D70417101A8807AC0079AD53A2004A98871C4
S1132D8099E7000010D00354D4000020A03C0000B8
S1132D9000000020DD0700000F2C000010B5002407
S1132DA006E001222100C9B20220FEF7FCFE641CE9
S1132DB0022CF6D3002403E0200000F0C1F8641CC8
S1132DC0022CF9D3002000F0ECF8002000F011F9F7
S1132DD0002000F0F5F803210920FFF738F910BDB1
S1132DE080B596218901002000F012F901BD000090
S1132DF00121C006C00E814028480160704710B50B
S1132E00040064B2002C06D5582225492548FFF752
S1132E10CAF9FFF7C7F964B2202C06DB592220490E
S1132E202148FFF7C0F9FFF7BDF9200040B2FFF7D2
S1132E30DFFF10BD80B51D480068002802D01B4884
S1132E400068804701BD80B518484068002802D05A
S1132E5016484068804701BD38B505000C00EDB246
S1132E60022D06DB712212491248FFF79CF9FFF785
S1132E7099F92000002806D172220D490E48FFF767
S1132E8092F9FFF78FF90948EDB2042169434450E0
S1132E900A48EDB24057FFF7B2FF31BD00E100E050
S1132EA09C3400000C3D000094390000C400002054
S1132EB0EC37000004390000B43C00006C00002032
S1132EC00EB400B582B003A900916B460200012143
S1132ED0034878440A30FDF79BFA029906B0084784
S1132EE0A90D000070B505000C001600022D06D3D4
S1132EF0EE220E490E48FFF756F9FFF753F9202C3E
S1132F0006D3EF2209490B48FFF74DF9FFF74AF9B9
S1132F10094804214D43405904214C4300190749F1
S1132F200143F6B23002086070BD0000BC330000FB
S1132F30603A00004C3D0000883D00000000101481
S1132F4080B5002802D0012806D029E001220C21F6
S1132F500020FFF7C7FF23E0012200210120FFF733
S1132F60C1FF012205210120FFF7BCFF0122062138
S1132F700120FFF7B7FF012207210120FFF7B2FF6D
S1132F8001220A210120FFF7ADFF01220B210120BC
S1132F90FFF7A8FF01220D210120FFF7A3FFFFE7A0
S1132FA001BD80B500280AD1022203210120FFF7C8
S1132FB099FF022204210120FFF794FFFFE701BDDE
S1132FC080B5002814D1032205210020FFF78AFFD1
S1132FD0032206210020FFF785FF0322072100209A
S1132FE0FFF780FF032209210020FFF77BFFFFE7A3
S1132FF001BD80B500280AD1022201210120FFF77A
S113300071FF022202210120FFF76CFFFFE701BDDF
S113301030B585B00C002E4948602E48002803D0F6
S11330202B484068C046C046012229484168C9B2BD
S11330302320FEF7B8FD012569460920FEF724FE8A
S113304000982900FEF7E7FB009001A80C2100F08E
S11330505BF800980190029401A91D484068FFF7AD
S113306011FB1B484068FFF70BFC19484068FFF749
S11330702DFC01201649087005B030BD70B50C0058
S113308016000025002C01D100201FE0012804D0E7
S1133090022802D00020C04318E00D480078002820
S11330A00FD10020C04311E00948406800F02EF819
S11330B00028F9D021780648406800F03FF8641CE5
S11330C06D1C3000461E0028EED1280070BD0000A3
S11330D0BC00002000000000130030B414001500F0
S11330E0103902D310393CC0FCD2490700D30CC0BC
S11330F000D504C0890002D30280801C002900D5B9
S1133100027030BC704700000022E5E780B500285B
S113311006D0552206490748FFF745F8FFF742F85D
S1133120054800680100C90D0800C007C00F02BDB2
S113313098370000103A00000440054010B50C0018
S1133140002806D02F2205490548FFF72CF8FFF781
S113315029F8E4B20348046010BD00008C36000076
S1133160E83900000C4005400A010000010000009D
S1133170010000000B01000001000000010000003C
S11331800D0100000100000001000000FFFFFFFF2F
S1133190000000000000000000010203040506070F
S11331A008090A0B0C0D0E0F101112000001020386
S11331B00405060708090A0B0C0D0E0F1011121353
S11331C01415161718191A1B1C1D1E1F2021222343
S11331D0242526271415000000000000000000002C
S11331E000000000000000000000000000000000DB
S11331F00000000000000000000000002C3D000062
S11332003C3D00001C3D00000000000000000000E8
S1133210000000000000000000000000E83B000087
S1133220A03D0000020000003880044000020000BD
S11332300201000038800440000400000700000080
S11332403C80044001000000100000003C80044069
S11332500000000811000000348004400000080051
S1133260150000003C80044000000001150100002E
S11332703C80044000000002190000003880044033
S1133280010000001B0000003C80044000000020FE
S113329021000000348004400000400013000000BE
S11332A034800440000010002200000034800440F8
S11332B0400000002300000038800440000010009B
S11332C028000000000000000000000000B51648BF
S11332D0164988420CD0002008E0144904224243D5
S11332E08958114A04234343D150401C3028F4D355
S11332F00D480F4908600F490F4A1048801A03E02F
S113330013780B70521C491C0300581E002BF7D174
S11333100B490C48401A02E000220A70491C0200C2
S1133320501E002AF8D100BD00FEFF1F000000005F
S113333008ED00E0000000206831000024320000A5
S1133340BC000020D500002000B513480078000719
S113335005D511480078082101430F480170002069
S11333600E490860802040020D49086002200D4982
S1133370087080200C49087000200C490870012056
S11333800B49087002200B4908700B4800780C2187
S11333900842FAD100BD000002D007400081044079
S11333A0448004400840064018400640005006404F
S11333B0014006400040064006400640433A5C6433
S11333C0206469736B5C776F726B5C70726F6A6593
S11333D063745C73646B5C6D63752D73646B5C61A7
S11333E07070735C7274635F64656D6F5C69617245
S11333F05C6672646D6B6C30337A34386D5C2E2E7F
S11334005C2E2E5C2E2E5C2E2E5C706C6174666FAE
S1133410726D5C68616C5C706F72745C66736C5F17
S1133420706F72745F68616C2E680000433A5C646C
S1133430206469736B5C776F726B5C70726F6A6522
S113344063745C73646B5C6D63752D73646B5C6C2B
S113345069625C6961725C4B4C30335A345C2E2E69
S11334605C2E2E5C2E2E5C706C6174666F726D5CCB
S1133470647269766572735C696E74657272757074
S1133480745C66736C5F696E746572727570745F78
S11334906D616E616765722E68000000433A5C647A
S11334A0206469736B5C776F726B5C70726F6A65B2
S11334B063745C73646B5C6D63752D73646B5C6CBB
S11334C069625C6961725C4B4C30335A345C2E2EF9
S11334D05C2E2E5C2E2E5C706C6174666F726D5C5B
S11334E0647269766572735C696E74657272757004
S11334F0745C66736C5F696E746572727570745F08
S11335006D616E616765722E6800000010B504007D
S1133510022C07D3FF22C63213491448FEF743FE98
S1133520FEF740FE0020C0431149042254430959C8
S1133530A031086010BD80B50E480068002802D094
S11335400C48006880470020FFF7E0FF01BD80B50C
S113355008484068002802D0064840688047012097
S1133560FFF7D4FF01BD0000E83600005C3B00001B
S1133570B03D0000CC000020433A5C6420646973D1
S11335806B5C776F726B5C70726F6A6563745C738B
S1133590646B5C6D63752D73646B5C6C69625C69F0
S11335A061725C4B4C30335A345C2E2E5C2E2E5C94
S11335B02E2E5C706C6174666F726D5C68616C5CFD
S11335C0706F72745C66736C5F706F72745F686145
S11335D06C2E6800433A5C64206469736B5C776F9B
S11335E0726B5C70726F6A6563745C73646B5C6D40
S11335F063752D73646B5C6C69625C6961725C4BAE
S11336004C30335A345C2E2E5C2E2E5C2E2E5C7085
S11336106C6174666F726D5C68616C5C6770696F15
S11336205C66736C5F6770696F5F68616C2E6800BD
S1133630433A5C64206469736B5C776F726B5C7093
S1133640726F6A6563745C73646B5C6D63752D7310
S1133650646B5C706C6174666F726D5C68616C5CE9
S11336606C70756172745C66736C5F756172745FA3
S113367068616C5F636F6D6D6F6E5F636F6E6669BB
S11336806775726174696F6E732E6300433A5C648C
S1133690206469736B5C776F726B5C70726F6A65C0
S11336A063745C73646B5C6D63752D73646B5C70C5
S11336B06C6174666F726D5C68616C5C6C70756172
S11336C072745C66736C5F756172745F68616C5F61
S11336D07472616E736665725F66756E6374696F2A
S11336E06E732E6300000000433A5C6420646973C7
S11336F06B5C776F726B5C70726F6A6563745C731A
S1133700646B5C6D63752D73646B5C6C69625C697E
S113371061725C4B4C30335A345C2E2E5C2E2E5C22
S11337202E2E5C706C6174666F726D5C68616C5C8B
S1133730706F72745C66736C5F706F72745F6861D3
S11337406C2E6800433A5C64206469736B5C776F29
S1133750726B5C70726F6A6563745C73646B5C6DCE
S113376063752D73646B5C706C6174666F726D5CF1
S1133770647269766572735C636C6F636B5C73729D
S1133780635C66736C5F636C6F636B5F6D616E61CA
S11337906765722E63000000433A5C6420646973B9
S11337A06B5C776F726B5C70726F6A6563745C7369
S11337B0646B5C6D63752D73646B5C706C617466B3
S11337C06F726D5C68616C5C6C70756172745C6660
S11337D0736C5F756172745F68616C5F737461743C
S11337E075735F666C6167732E630000433A5C64B3
S11337F0206469736B5C776F726B5C70726F6A655F
S113380063745C73646B5C6D63752D73646B5C7063
S11338106C6174666F726D5C647269766572735CF8
S11338207274635C7372635C66736C5F7274635FFF
S11338306972712E63000000433A5C64206469730A
S11338406B5C776F726B5C70726F6A6563745C73C8
S1133850646B5C6D63752D73646B5C706C61746612
S11338606F726D5C68616C5C73696D5C66736C5FD0
S113387073696D5F68616C2E63000000433A5C6499
S1133880206469736B5C776F726B5C70726F6A65CE
S113389063745C73646B5C6D63752D73646B5C70D3
S11338A06C6174666F726D5C68616C5C6770696F83
S11338B05C66736C5F6770696F5F68616C2E68002B
S11338C0433A5C64206469736B5C776F726B5C7001
S11338D0726F6A6563745C73646B5C6D63752D737E
S11338E0646B5C706C6174666F726D5C68616C5C57
S11338F06770696F5C66736C5F6770696F5F68613E
S11339006C2E63007274635F6972715F6E756D62B1
S11339106572203C2046534C5F4645415455524500
S11339205F5254435F494E544552525550545F437D
S11339304F554E540000000030B401210268001DB0
S1133940002A0FD00368C318446808300C4202D020
S11339504D466D1E64191D6825601B1D241D121F14
S1133960ECD0F8E730BC70476972714E756D6265D2
S113397072203C3D2046534C5F46454154555245C8
S11339805F494E544552525550545F4952515F4D10
S1133990415800006972714E756D626572203C3D3C
S11339A02046534C5F464541545552455F494E5459
S11339B04552525550545F4952515F4D4158000091
S11339C075617274496E7374616E6365203C20483E
S11339D0575F4C50554152545F494E5354414E43E6
S11339E0455F434F554E540075617274496E73744C
S11339F0616E6365203C2048575F4C5055415254DA
S1133A005F494E5354414E43455F434F554E540016
S1133A1075617274496E7374616E6365203C2048ED
S1133A20575F4C50554152545F494E5354414E4395
S1133A30455F434F554E540010B50749794418313A
S1133A40064C7C44163404E0081D0A68891888472B
S1133A500100A142F8D110BD4C0100006C0100002E
S1133A60696E7374616E6365203C2048575F504FE4
S1133A7052545F494E5354414E43455F434F554E54
S1133A8054000000636C6F636B4D6F64756C65204C
S1133A903C206B53696D436C6F636B4D6F64756C45
S1133AA0654D617800000000636C6F636B536F7544
S1133AB0726365203C206B53696D436C6F636B5379
S1133AC06F757263654D617800000000636C6F630D
S1133AD06B44697669646572203C206B53696D435D
S1133AE06C6F636B446976696465724D617800003C
S1133AF0696E7374616E6365203C2048575F504F54
S1133B0052545F494E5354414E43455F434F554EC3
S1133B1054000000696E7374616E6365203C204834
S1133B20575F4750494F5F494E5354414E43455F99
S1133B30434F554E54000000696E7374616E6365A3
S1133B40203C2048575F4750494F5F494E535441EA
S1133B504E43455F434F554E54000000696E7374E5
S1133B60616E6365203C2048575F504F52545F4953
S1133B704E5354414E43455F434F554E540000004D
S1133B8038B504000025ED43AC4209D069460870FD
S1133B9001220120FFF772FA012801D1200032BD71
S1133BA0280032BD3BDAFFFF1C000000BC000020EF
S1133BB00000000085FDFFFFBC000000ACF5FFFF26
S1133BC00000002000000000636C6F636B536F758E
S1133BD0726365203C206B436C6F636B536F75722B
S1133BE063654D61780000001700000F1700000F97
S1133BF00300000F0C00000F1100000F1700000F4E
S1133C000700000F0900000F000000001F003B0028
S1133C105A0078009700B500D400F3001101300178
S1133C204E01000000F00BF8002801D0FFF704FF5C
S1133C300020C046C046FEF7F3FF00F002F8012062
S1133C40704780B500F002F801BD00000746384611
S1133C50FEF7C0FAFBE70000686A6C747A4C000057
S1133C606E616E004E414E00696E6600494E46001C
S1133C700248804702488047024800474933000011
S1133C80CD3200007D3D000038B505000C00200059
S1133C90FFF776FFA04200D00025280032BD0000C7
S1133CA00D0A0A5254432044656D6F0A0A0D000040
S1133CB00000000066756E6374696F6E20213D20FC
S1133CC04E554C4C000000000000010001000100B2
S1133CD003010103050101031800010F30203C3DDD
S1133CE0206972714E756D6265720000001F1C1FA1
S1133CF01E1F1E1F1F1E1F1E1F000000001F1D1F52
S1133D001E1F1E1F1F1E1F1E1F00000030203C3DD3
S1133D10206972714E756D62657200000600000FB5
S1133D201700000F0A00000F0C00000F1700000F0F
S1133D300900000F0700000F1100000F1700000F0B
S1133D400900000F0700000F1100000F70696E20BA
S1133D503C2033325500000070696E203C20333221
S1133D605500000070696E203C20333200000000D2
S1133D7070696E203C20333200000000C046C0460B
S1133D80C046C046FFF74EFF0090044000A0044028
S1133D9000F00F4040F00F400090044000A00440A9
S1133DA00B00000F0700000F00F00F4040F00F4021
S1133DB00090044000A00440FFF7FEFFFFF7FEFF61
S1133DC0FFF7FEFFFFF7FEFFFFF7FEFFFFF7FEFF23
S1133DD0FFF7FEFFFFF7FEFFFFF7FEFFFFF7FEFF13
S1133DE0FFF7FEFFFFF7FEFFFFF7FEFFFFF7FEFF03
S1133DF0FFF7FEFFFFF7FEFFFFF7FEFFFFF7FEFFF3
S1133E00FFF7FEFFFFF7FEFFFFF7FEFFFFF7FEFFE2
S1133E10FFF7FEFFFFF7FEFFFFF7FEFFFFF70AF8CD
S1133E20FFF711F8FFF7FEFFFFF7FEFFFFF7FEFFB6
S1133E30FFF7FEFFFFF7FEFFFFF7FEFFFFF7FEFFB2
S1133E40FFF7FEFFFFF777FBFFF781FBFFF7FEFFAE
S9033D7D42
