S0170000746865726D6973746F725F64656D6F2E73726563B8
S113000028030020F12D0000FD2E0000012F000028
S113001000000000000000000000000000000000DC
S1130020000000000000000000000000052F000098
S11300300000000000000000092F00000D2F000048
S1130040112F0000152F0000192F00001D2F000094
S1130050212F0000252F0000292F00002D2F000044
S1130060312F0000352F0000392F00003D2F0000F4
S1130070412F0000452F0000492F0000A92E000049
S1130080512F0000552F0000592F00005D2F000054
S1130090612F0000652F0000692F00006D2F000004
S11300A0712F0000752F0000792F00007D2F0000B4
S11300B0812F0000852F0000DB260000F3260000BE
S1130400FFFFFFFFFFFFFFFFFFFFFFFFFE3DFFFFBB
S11304100121C006C00E8140CF4801607047012110
S1130420C006C00E8140CD480160704710B504007D
S1130430002C06D0C322AE49AE4800F070FC00F098
S11304406DFC0020D24904225443095924319C22D2
S113045052050A43106010BD38B504000D00002C8D
S113046006D0DC22A249A34800F059FC00F056FC57
S1130470C74804214C430059C56231BD38B5040056
S11304800D00002C07D0972252009949994800F09A
S113049046FC00F043FCEDB2BD4804214C43005936
S11304A00830D24901430D6031BD38B504000D0058
S11304B0002C07D0FF2244328D498E4800F02FFCD7
S11304C000F02CFCEDB2E800B14904225443095970
S11304D00C318C2252050A43106031BD38B504003A
S11304E00D00002C07D0FF2256328149814800F0CC
S11304F016FC00F013FCEDB26801A5490422544334
S113050009590831CB4A0A43106031BD38B504009B
S11305100D00002C07D0B32252007549754800F035
S1130520FEFB00F0FBFBEDB2994804214C4300595B
S11305302030AE4901430D6031BD38B504000D00D3
S1130540002C07D0FF22783269496A4800F0E7FBA3
S113055000F0E4FBEDB2A8008D490422544309598C
S11305600C31882252050A43106031BD38B50400AD
S11305700D00002C07D0C62252005D495D4800F0F2
S1130580CEFB00F0CBFBEDB2280181490422544399
S113059009590831902252050A43106031BD38B51B
S11305A004000D00002C07D0CF22520050495148BE
S11305B000F0B5FB00F0B2FBEDB2754804214C43EA
S11305C000590C30894901430D6031BD38B5040030
S11305D00D00002C07D0D72252004549454800F0B1
S11305E09EFB00F09BFBEDB2E801694904225443F1
S11305F0095908319C2252050A43106031BD38B5AF
S113060004000D00002C07D0E0225200384939487C
S113061000F085FB00F082FBEDB2A8005C490422E7
S1130620544309590831BC4A0A43106031BD38B5F6
S113063004000D00002C07D0E82252002C492D485C
S113064000F06DFB00F06AFBEDB2E80050490422B3
S11306505443095924318C2252050A43106031BD98
S113066038B504000D00002C07D0FF22E4322049E5
S1130670204800F054FB00F051FBEDB2A8014449BE
S11306800422544309592031982252050A43106028
S113069031BD38B504000D00002C07D0FF22F23222
S11306A01349144800F03BFB00F038FBEDB2A800FE
S11306B037490422544309592431882252050A43F4
S11306C0106031BD38B504000D00002C06D0934AEB
S11306D00749084800F023FB00F020FBEDB22C484A
S11306E004214C4300592430404901430D6031BD7D
S11306F01C270000482C000038B504000D00002C15
S113070006D0874A99499A4800F009FB00F006FB95
S1130710EDB268011E490422544309592031942240
S113072052050A43106031BD38B504000D00002C99
S113073006D0904A8D498E4800F0F1FA00F0EEFAA6
S1130740EDB2280112490422544309592031902260
S113075052050A43106031BD00E100E080E100E091
S113076038B504000D00002C06D0834A7F49804828
S113077000F0D5FA00F0D2FAEDB2E8000449042200
S11307805443095920318C2252050A43106031BD6B
S1130790F42E000038B504000D00002C07D092227E
S11307A092007249724800F0BAFA00F0B7FA5D4854
S11307B004214C4300591830BA4901430D6031BD3E
S11307C038B504000D00002C06D08B4A67496848F0
S11307D000F0A5FA00F0A2FA524804214C43005953
S11307E01C30B04901430D6031BD00000000081009
S11307F038B505000C00002D06D08E4A5B495C48D4
S113080000F08DFA00F08AFA022C06D3914A574977
S1130810914800F084FA00F081FACC4804214D4359
S1130820405904214C4300198121490501431F20EB
S1130830086031BD0000881270B505000C00160078
S1130840002D06D0984A4949494800F068FA00F05A
S113085065FA022C07D3A222920044497E4800F094
S11308605EFA00F05BFA2F4804214D4340590421FD
S11308704C430019812149050143F6B20E6070BD55
S113088070B505000C001600002D06D0874A3749C4
S1130890374800F044FA00F041FA022C06D3844AA7
S11308A032496D4800F03BFA00F038FAA7480421B9
S11308B04D43405904214C430019982149050143F3
S11308C0F6B2B001086070BD38B505000C00002D0B
S11308D006D09F4A2549264800F021FA00F01EFA66
S11308E0022C06D39B4A21495B4800F018FA00F019
S11308F015FA964804214D43405904214C430019EC
S11309009C21490501430868002801D0012000E02A
S11309100020C0B232BD0000000008110302000034
S113092011020000F42E000038B505000C00002D63
S113093006D0894A0D490E4800F0F1F900F0EEF9AD
S1130940022C06D3854A0949434800F0E8F900F02F
S1130950E5F97E4804214D43405904214C430019D4
S1130960103050490143086832BD00001C270000C4
S1130970482C0000270200003A02000038B50500A8
S11309800C00002D06D0764A7649C84800F0C7F915
S113099000F0C4F9E4B2022C06D3734A71492E481C
S11309A000F0BDF900F0BAF9E4B22001674904226D
S11309B0554349590C31902252050A43106031BD08
S11309C010B5040064B2002C06D55822B849B948C1
S11309D000F0A5F900F0A2F964B2202C06DB59223C
S11309E0B349B54800F09BF900F098F9200040B2F3
S11309F0FFF70EFD10BD00005602000010B5040004
S1130A0064B2002C06D56B22A949AA4800F087F9E4
S1130A1000F084F964B2202C06DB6C22A449A648B9
S1130A2000F07DF900F07AF9200040B2FFF7F7FCFE
S1130A3010BD00007502000010B50400002C06D0A3
S1130A404622B249994800F06AF900F067F9B048C3
S1130A50005710BD76020000842D000010B504007C
S1130A60002C06D05322A949904800F058F900F010
S1130A7055F9A8480C216143401841682000FFF74C
S1130A8053FFA4490C22624389188860A1480C21B1
S1130A9061434058002804D09E480C214C4300591F
S1130AA0804710BD00007810870200009D020000FE
S1130AB09E02000038B505000C00280000F082F901
S1130AC0022801D102200BE0280000F0A9F92060DF
S1130AD000212800FFF728FF2800FFF7A7FC0020CB
S1130AE032BD80B5002901D1012003E00968FFF778
S1130AF0B3FC002002BD30B583B004000D0086486D
S1130B0003C86A4603C2083A6946200000F02EF87A
S1130B10002801D0022018E001212000FFF7B9FDD0
S1130B2003212000FFF7CEFD29002000FFF7C2FFBC
S1130B30002801D0022008E029002000FFF7D1FF9F
S1130B4000212000FFF7A5FD00203EBDF42E00008B
S1130B50BE020000BF020000DE020000DF0200004F
S1130B60EE0200001C270000EF02000038B505006B
S1130B700C00002C01D101201AE001222900C9B285
S1130B80102000F0E8F921782800FFF777FC61785D
S1130B902800FFF7A3FCE1782800FFF7B7FCA17851
S1130BA02800FFF72CFD21792800FFF740FD0020E5
S1130BB032BD38B504000D00002D01D101203DE007
S1130BC0E9782000FFF7B9FC6878002803D0A978F9
S1130BD02000FFF7E4FC69782000FFF7C7FC2978C0
S1130BE02000FFF7F3FC29792000FFF75EFC697908
S1130BF02000FFF735FD287D002803D0697D200003
S1130C00FFF760FD297D2000FFF743FDA879002848
S1130C100FD0E9682000FFF7BDFD29692000FFF728
S1130C20CFFDE9792000FFF77FFD297A2000FFF747
S1130C3097FDA9792000FFF75FFD002032BD38B58C
S1130C4005000C00002C01D101202EE0E1782800E1
S1130C50FFF7CEFDE1782800FFF790FEA07800288A
S1130C6011D0E0782B490C226A4389184860280087
S1130C70FFF7E2FE40B2FFF7A3FE0122E17828006D
S1130C80FFF7FEFD0AE00022E1782800FFF7F8FDF7
S1130C902800FFF7D1FE40B2FFF7B0FE6378227858
S1130CA0E1782800FFF7C8FD002032BD482C000081
S1130CB0D02500001C2E0000102B000038B50400C5
S1130CC00D00002C01D1002D01D1002016E0A878E0
S1130CD000280ED1E9782000FFF7F6FD0028F9D0AE
S1130CE0E9782000FFF720FE0A490C2262438918A4
S1130CF0886008480C214C430019806832BD054ABD
S1130D000C23584311507047000000003C29000098
S1130D10BC00002010010020C42E0000704700B564
S1130D2083B00091019202906A4604491820ABBE38
S1130D30002801D100F0B0FA03B000BD1010020089
S1130D4038B505000C00002D06D05A4A5A495B48B4
S1130D50FFF7E5FFFFF7E2FF022C06D3584A564996
S1130D605848FFF7DCFFFFF7D9FF574804214D43EC
S1130D70405904214C4300199C214905014308684A
S1130D80002801D0012000E00020C0B232BD10B51F
S1130D900400002C06D04D4A47494848FFF7BFFFDE
S1130DA0FFF7BCFF484804214C43005924309821E4
S1130DB0490501430868002801D0012000E0002013
S1130DC0C0B210BD10B50400002C06D0302240493A
S1130DD03A48FFF7A4FFFFF7A1FF40203A49042255
S1130DE0624389582431802212050A43106080200E
S1130DF0354904226243895824319C2252050A430E
S1130E00106000212000FFF79BFF0028F9D020008C
S1130E10FFF7BDFF002801D0022000E0002010BD34
S1130E2010B50400002C06D0472229492348FFF7B7
S1130E3076FFFFF773FF0020234904226243895899
S1130E404C31244A0A43116840181F490422624362
S1130E5089584831204A0A43116840181A49042223
S1130E606243895844311D4A0A431168401816499F
S1130E700422624389584031822252050A43116890
S1130E80401811490422624389583C31144A0A43E8
S1130E90116840180C4904225443095938310D4A49
S1130EA00A431168401801004908802000020843E1
S1130EB010BD0000BE020000D0290000B42C0000C8
S1130EC0BF020000A02D0000F82E0000CD0200009B
S1130ED0142A000000002810000030100000381010
S1130EE00000481038B50C000021002500E0491C22
S1130EF04F4A04234B43D25C182A0AD04C4A042399
S1130F004B43D25CC0B28242F1D1494804225143DE
S1130F104518002D01D101201CE06878002807D075
S1130F202100A87800F025F8002804D0012011E061
S1130F3000F0F6F920606946E87800F0E4FA002849
S1130F4007D120680099491C00F037FB206000207D
S1130F5000E0042032BD80B5D2B2C9B2354BC0B274
S1130F60185C00F03BFA002801D1002000E00220C8
S1130F7002BD10B50C00C0B20100002905294CD9EE
S1130F80891F1AD0491E1DD0491E1ED0491E1FD0CC
S1130F90491E20D0491E22D0491E23D0091F25D026
S1130FA0491E27D0491E29D0491E2AD0491E2BD0BC
S1130FB0491E2CD0491E2DD034E080200002206030
S1130FC0002010BDA7482060FAE7A7482060F7E793
S1130FD0A6482060F4E7802000022060F0E70120AA
S1130FE02060EDE7FA2080002060E9E700F098F93E
S1130FF02060E5E700F083F92060E1E79C48206089
S1131000DEE79C482060DBE79B482060D8E79B48EC
S11310102060D5E79A482060D2E72100C0B2FFF7EC
S113102061FFCEE7974820600120CAE70000000076
S1131030082E000048000020F2B584B0070000200C
S1131040029000200190002500240026FFB2132FF7
S113105007DBA02252008C498C48FFF760FEFFF7A3
S11310605DFE8B48FFB2C55DEDB22800002804D0B8
S1131070032804D0062804D005E00E2503E00F253C
S113108001E00C25FFE700A9491C2800C0B200F0CC
S113109007FA002801D00320E2E07E48EDB20421E3
S11310A04D434559002D01D10320D9E068464078CD
S11310B00421484328184078002846D069466846E9
S11310C0407804225043285C00F0EAF9002801D05B
S11310D00320C5E06F486946497804225143695C9E
S11310E0042251434458002C01D10320B8E068463F
S11310F00078042148432018407800281FD000A914
S1131100891C6846007804225043205C00F0C8F92A
S1131110002801D00320A3E05E4869460978042230
S11311205143615C042251434658002E01D10320EF
S113113096E06846807804214843305C0AE06846BB
S1131140007804214843205C04E068464078042188
S11311504843285C0499C0B2FFF70BFF002801D074
S113116001207DE0684640780421484328188078AF
S113117000281CD068464078042148432818C078C9
S1131180C0B2052849D007283ED009284ED00B28E4
S113119031D00D2802D00E2851D055E001A90D20E0
S11311A000F0B1F902A90C2000F0ADF94CE0002CDC
S11311B00ED068460078042148432018807800281F
S11311C006D068460078042148432018C078D7E741
S11311D0002E0ED068468078042148433018807869
S11311E0002806D068468078042148433018C07827
S11311F0C6E7002034E001A90B2000F084F902A91D
S11312000A2000F080F91FE001A9072000F07BF913
S113121002A9062000F077F916E001A9052000F0E4
S113122072F902A9042000F06EF90DE001A9092069
S113123000F069F902A9082000F065F904E001A9A9
S11312400E2000F060F9FFE7049800680299491C39
S113125048430199491C00F0B0F904990860002042
S113126005B0F0BD8038010081380100006CDC025B
S1131270672B0000CE560000358200003682000045
S11312809CAD000003D90000E8280000442D0000B4
S1131290340000207000002080B5012000F0E4F943
S11312A001BD30B4012100220368001D002B0BD0C6
S11312B00468001D0C4202D04D466D1E6419226064
S11312C0241D1B1FF0D0FAE730BC70472C4800786F
S11312D0C0B270472B480078C0B270472A480078E3
S11312E0C0B2704729480078C0B2704780B5FFF794
S11312F0F1FF012801D1274800E0274802BD38B595
S1131300FFF7ECFF0500FFF7EDFF0400FFF7EEFF2A
S11313100121A9400122A240514300F04EF932BDFF
S113132010B50024FFF7D2FF002802D1184C20008A
S113133010BDFFF7CBFF012818D1FFF7CBFF012821
S113134009D10124FFF7CAFF84402100114800F0AD
S113135031F90400EBE701210C00FFF7BFFF210086
S113136081400D4800F026F90400E0E7FFF7AEFFE6
S1131370022802D180242402D9E72000D8E7000003
S113138000400E5301400650084096501840165035
S1131390006CDC0200127A0080841E0010B500226A
S11313A000E0521C6C4B0C2454431B5D282B13D0BF
S11313B0694B0C2454431B5DC0B28342F1D1664B8C
S11313C00C2454431B195B78C9B28B42E9D162489F
S11313D00C214A43801800E0002010BD70B50500C0
S11313E00E0014000020EDB2282D06DB54225B49C8
S11313F05B48FFF794FCFFF791FC3100C9B2280069
S1131400C0B2FFF7CBFF002811D0E4B2002C06D005
S11314104168096882680A434068026005E04168DF
S113142009688268914340680160002000E002205E
S113143070BD70B506000C000025F6B2132E06DB55
S11314409E2246494748FFF76AFCFFF767FCF6B25D
S1131450092E08D00A2E0BD00B2E0ED0112E11D02F
S1131460122E14D018E0E4B2A0063F49086014E03C
S1131470E4B220063D4908600FE0E4B2A0043C4910
S113148008600AE0E4B260013A49086005E0E4B2A9
S113149020013949086000E003252800C0B270BD6E
S11314A070B506000C000025F6B2132E07DB90225F
S11314B052002A492B48FFF732FCFFF72FFCF6B203
S11314C0092E08D00A2E0AD00B2E0CD0112E0ED0C5
S11314D0122E10D013E024480068207010E0234836
S11314E0006820700CE022480068207008E0214861
S11314F00068207004E020480068207000E00325A4
S11315002800C0B270BD70B506000D000024F6B20C
S11315100F2E07DB8622920010491848FFF7FFFBC5
S1131520FFF7FCFB00202860F6B2002E04D0032E47
S113153006D00E2E08D00AE011480068286007E0A3
S113154010480068286003E00120286000E00424BB
S11315502000C0B270BD0000C02300008C29000030
S1131560DC2B0000002C000004800C5D04800C5C6B
S113157000700C590480945204800452242C0000FE
S113158044801C5E44801458F446002804D4494224
S113159000F013F8404260474042002905D45FD070
S11315A000F00BF8404249426047494200F005F818
S11315B04942604703460B43E6D40022030A8B42A8
S11315C00BD203098B4219D243088B422ED2411A03
S11315D000D20146524110467047FF2209023FD013
S11315E012068B4205D3121209028B4201D3121246
S11315F0090203098B4219D300E0090AC3098B428B
S113160001D3CB01C01A524183098B4201D38B0110
S1131610C01A524143098B4201D34B01C01A5241B3
S113162003098B4201D30B01C01A5241C3088B42F8
S113163001D3CB00C01A524183088B4201D38B00E3
S1131640C01A524143088B4201D34B00C01A524185
S1131650884200D3401A5241CFD201461046704707
S113166008B500F00BF808BD80B5C046C046024A74
S113167011001820ABBEFBE72600020070471E1FB6
S11316800121C006C00E81409C480160704770B5BE
S113169005000C001600022D06D37F2285498648DA
S11316A0FFF73DFBFFF73AFB202C06D3802281494C
S11316B08248FFF734FBFFF731FB914804214D4387
S11316C0405904214C430019802149050143F6B2D5
S11316D00E6070BD70B505000C001600022D06D317
S11316E08F2274497448FFF71AFBFFF717FB202C6D
S11316F006D390226F497148FFF711FBFFF70EFBE9
S11317007F4804214D43405904214C43001984214E
S113171049050143F6B27000086070BD70B505005C
S11317200C001600022D06D3A12262496248FFF77D
S1131730F6FAFFF7F3FA202C06D3A2225D495F489C
S1131740FFF7EDFAFFF7EAFA7C4804214D434059CC
S113175004214C430019882149050143F6B2B00025
S1131760086070BD70B505000C001600022D06D38C
S1131770B72250495048FFF7D2FAFFF7CFFA202C8E
S113178006D3B8224B494D48FFF7C9FAFFF7C6FA0A
S11317905B4804214D43405904214C4300199021D6
S11317A049050143F6B23001086070BD70B505000B
S11317B00C001600022D06D3DD223E493E48FFF7F9
S11317C0AEFAFFF7ABFA202C06D3DE2239493B48A8
S11317D0FFF7A5FAFFF7A2FA584804214D434059F0
S11317E004214C430019982149050143F6B2B00184
S11317F0086070BD70B505000C001600022D07D3FB
S1131800B82252002B492C48FFF789FAFFF786FAD1
S1131810202C07D3FF22723226492848FFF77FFA8B
S1131820FFF77CFA364804214D43405904214C43C8
S113183000196A490143F6B23004086070BD38B536
S113184004000D00022C06D3B82265496548FFF751
S113185066FAFFF763FA202D06D3B922604962487D
S1131860FFF75DFAFFF75AFA0120A8405F49042206
S113187054430959486031BD38B504000D00022CA9
S113188006D3C52256495748FFF749FAFFF746FAE7
S1131890202D06D3C62252495348FFF740FAFFF7DA
S11318A03DFA0120A8405149042254430959886053
S11318B031BD0000782700006C2C0000782E000059
S11318C038B504000D00022C06D3D2224449454801
S11318D0FFF725FAFFF722FA202D06D3D322404939
S11318E04148FFF71CFAFFF719FA0120A8403F49C5
S11318F0042254430959C86031BD000000E100E0EE
S1131900D42E000010B5040064B2002C06D5582271
S113191037493848FFF703FAFFF700FA64B2202C7E
S113192006DB592232493448FFF7F9F9FFF7F6F993
S1131930200040B2FFF7A4FE10BD0000D42E00002A
S113194038B505000C00002D09D003E0280000F094
S113195013F8083528680021C9438842F6D1002CC1
S113196009D003E0200000F04BF80C34206800217B
S1131970C9438842F6D131BD70B504002068000A1D
S1131980C5B22078C6B201222900C9B20220FFF7ED
S1131990E2FA00223100280000F0AAF8227931008E
S11319A02800FFF797FE627931002800FFF76FFEE9
S11319B0A27931002800FFF7D5FEE2793100280032
S11319C0FFF718FFE079002807D00C48405700289B
S11319D003D00A484057FFF795FF70BD0000181860
S11319E0D4270000902C0000842E0000CC2E000090
S11319F0402600002C2E00003C2B00007E16000028
S1131A0070B504002068000AC5B22078C6B201226D
S1131A102900C9B20220FFF79EFA012231002800F2
S1131A2000F066F862683100280000F096F8227A27
S1131A3031002800FFF772FE627A31002800FFF7B8
S1131A40B5FE70BD80B50100090ACAB2C1B210006A
S1131A50FFF7F5FE01BD80B50100090ACAB2C1B2A3
S1131A601000FFF709FF01BD80B50100090ACAB2E1
S1131A70C1B21000FFF724FF01BD704738B5040060
S1131A800D00022C06D3B82245494648FFF747F912
S1131A90FFF744F9202D06D3B92241494248FFF704
S1131AA03EF9FFF73BF90120A84040490422544382
S1131AB00959486031BD38B504000D00022C06D325
S1131AC0C52237493748FFF72AF9FFF727F9202DB0
S1131AD006D3C62232493448FFF721F9FFF71EF92D
S1131AE00120A8403149042254430959886031BD7A
S1131AF070B504000E001500022C06D32D222C49CB
S1131B002848FFF70CF9FFF709F9202E06D32E22F7
S1131B1027492548FFF703F9FFF700F9EDB2012D36
S1131B200DD1224804216143405840690121B1404C
S1131B3001431E4804225443005941610CE01B48F0
S1131B4004216143405840690121B1408843174949
S1131B50042254430959486170BD70B506000D0054
S1131B601400022E06D3422211490E48FFF7D7F87B
S1131B70FFF7D4F8202D06D343220D490A48FFF776
S1131B80CEF8FFF7CBF8002C04D029003000FFF783
S1131B9075FF03E029003000FFF78DFF70BD0000E2
S1131BA0582A0000D82C0000902E0000E42E0000DB
S1131BB09C2A000038B505000C00002D06D02F2209
S1131BC08C498D48FFF7ABF8FFF7A8F8280000F020
S1131BD001F9280000F022F962682168280000F069
S1131BE02BF8002801D0012025E0A17A280000F07C
S1131BF081F8002801D003201DE0217A280000F09C
S1131C0095F8617A280000F0ADF8002801D004208E
S1131C1011E0A06802009201D20FA0680100C9017E
S1131C20C90F280000F0B0F8280000F0C1F828001F
S1131C3000F0E4F8002032BDF2B582B014000028B0
S1131C4006D06B226B496C48FFF769F8FFF766F81A
S1131C500425029821006943FFF7AFFC06000298AF
S1131C602900B6B27143FFF7A8FC844202D2001BDC
S1131C70009001E0201A0090052709E0201A00993D
S1131C80814204D30090FFB23D00684686887F1CE1
S1131C90FFB2212F12DA02982100FFB27943FFF735
S1131CA08CFC694688800298FFB26946898879432A
S1131CB0FFF783FC8442E1D2001BE0E720006421AB
S1131CC0FFF77BFC032148430099814210D228008E
S1131CD0001F042803D280208002584908606D1E2A
S1131CE0280657490860B6B256480660002000E04E
S1131CF00220FEBD10B50C00002806D0E7223D49A5
S1131D003D48FFF70CF8FFF709F8E4B2022C04D1C0
S1131D10802080054C49086006E0E4B220014B496C
S1131D200860002048490860002010BD10B50C0070
S1131D30002806D0FA222F492F48FEF7F0FFFEF7BD
S1131D40EDFFE4B2002C03D100204149086008E013
S1131D5002203F490860E4B22000C007C00F3D499B
S1131D60086010BD10B50C00002807D0FF22123205
S1131D7020492148FEF7D3FFFEF7D0FFE4B2600309
S1131D8035490860002010BD38B50D001400002846
S1131D9007D08E22520017491748FEF7C0FFFEF7FE
S1131DA0BDFF28072D49086020072D49086031BD73
S1131DB080B5002807D0952252000E490E48FEF740
S1131DC0AEFFFEF7ABFF2748006880210903264ACF
S1131DD0116001BD80B5002807D09F22520005493B
S1131DE00548FEF79CFFFEF799FF00201E49086096
S1131DF001BD000030280000682B000080B50028D9
S1131E0007D0FF22523219491948FEF788FFFEF71E
S1131E1085FF8020C0021749086001BD80B50028F5
S1131E2007D0FF225C3211491148FEF778FFFEF714
S1131E3075FF00200F49086001BD0000004085586F
S1131E400040255C004065500040855E0840055216
S1131E500840855008400550004085560440055E02
S1131E600840055E044005400840855930280000BC
S1131E70682B00000840055910B5002100E0491CFA
S1131E8081420BD2002205E000BF5B1C864CA342BA
S1131E90FAD3521C0F2AF2D20023F7E710BD10B573
S1131EA08248007803280ED18148047881490020B3
S1131EB0FEF704FF8049E4B202225443085302208F
S1131EC07A49087012E07A4804787A490020FEF7CB
S1131ED0F5FE7A49E4B202225443085303207349BD
S1131EE0087073480078401C714908707048007885
S1131EF0102807DA6D4800786E4908706D49002093
S1131F00FEF79DFE10BD70B50024002500260020BC
S1131F10674908700320654908706448007865497A
S1131F20087064490020FEF78AFE61480078102892
S1131F30FBDB614804886148058801200AE05E49AA
S1131F4002224243895A64185C4902224243895A54
S1131F506D18401C1028F2D324092D09661B503E2D
S1131F605748066070BD30B58BB000240025554835
S1131F7003C86A4603C2083A04A8182100F0C4F84A
S1131F8000F0C4F800F0E4F84F490020FFF7D8FC53
S1131F9085204000FFF75FFDFF200C30FFF75BFD5D
S1131FA00520FFF769FF02A90020FEF7A4FD002821
S1131FB003D00020C0430BB030BD69460020FEF7BB
S1131FC0D5FD002802D00020C043F4E704A9002076
S1131FD0FEF7EFFD002802D00020C043EBE73B49A9
S1131FE00020FEF78CFEFFF78EFF002030490870BA
S1131FF003202E4908702D4800782E4908702D4979
S11320000020FEF71CFE10E000203149087000207B
S11320102749087003202549087024480078254979
S1132020087024490020FEF70AFE29480078002899
S113203008D1FF200C30FFF717FD85204000FFF783
S113204001FD07E0FF200C30FFF7FCFC8520400079
S1132050FFF70AFD0520FFF70FFF15480078102849
S1132060E3DB154804881548058801200AE0124975
S113207002224243895A6418104902224243895A6F
S11320806D18401C1028F2D324092D09601B114936
S11320900860104800680A4909688842B4D20120DF
S11320A00B490870B3E70000FFFF00002601002081
S11320B02401002030000020C8000020E800002097
S11320C0C4000020BC2E0000000000209F1E000061
S11320D025010020C0000020130030B414001500B6
S11320E0103902D310393CC0FCD2490700D30CC0CC
S11320F000D504C0890002D30280801C002900D5C9
S1132100027030BC704700000022E5E710B50024DF
S113211006E001222100C9B20220FEF71CFF641C64
S1132120022CF6D3002403E0200000F047F8641CDE
S1132130022CF9D3002000F072F8002000F097F888
S1132140002000F07BF803210920FFF772F910BD8D
S113215080B596218901002000F098F801BD0000A7
S113216070B505000C001600022D06D3EE220E49B0
S11321700E48FEF7D4FDFEF7D1FD202C06D3EF2246
S113218009490B48FEF7CBFDFEF7C8FD09480421B9
S11321904D43405904214C43001907490143F6B209
S11321A03002086070BD0000E4240000B82B000079
S11321B06C2E0000B42E00000000101480B500281E
S11321C002D0012806D029E001220C210020FFF7CB
S11321D0C7FF23E0012200210120FFF7C1FF0122F4
S11321E005210120FFF7BCFF012206210120FFF792
S11321F0B7FF012207210120FFF7B2FF01220A21C4
S11322000120FFF7ADFF01220B210120FFF7A8FFFA
S113221001220D210120FFF7A3FFFFE701BD80B5D7
S113222000280AD1022203210120FFF799FF02228C
S113223004210120FFF794FFFFE701BD80B50028CA
S113224014D1032205210020FFF78AFF032206216F
S11322500020FFF785FF032207210020FFF780FFFE
S1132260032209210020FFF77BFFFFE701BD80B5B2
S113227000280AD1022201210120FFF771FF022266
S113228002210120FFF76CFFFFE701BD30B585B0E7
S11322900C00194948601948002803D016484068C2
S11322A0C046C046012214484168C9B22320FEF743
S11322B052FE012569460920FEF7BEFE009829005A
S11322C0FFF77BF9009001A80C21FFF71DFF009890
S11322D00190029401A908484068FFF76BFC064886
S11322E04068FFF765FD04484068FFF787FD01205B
S11322F00149087005B030BD08010020000000004D
S11323000A01000001000000010000000B010000B0
S113231001000000010000000D01000001000000A8
S113232001000000FFFFFFFF0000000000000000AC
S11323301F000100000102030405060708090A0B37
S11323400C0D0E0F10111200000102030405060704
S113235008090A0B0C0D0E0F101112131415161781
S113236018191A1B1C1D1E1F202122232425262771
S11323700000000000000000000000000000000059
S11323800000000000000000000000000000000049
S1132390000000004C2E00005C2E00003C2E0000CB
S11323A00000000000000000000000000000000029
S11323B000000000642D0000DC2E00000F0000006F
S11323C00200000038800440000200000201000006
S11323D03880044000040000070000003C800440F2
S11323E001000000100000003C80044000000008D0
S11323F011000000348004400000080015000000B3
S11324003C80044000000001150100003C800440B1
S113241000000002190000003880044001000000A0
S11324201B0000003C80044000000020210000004C
S11324303480044000004000130000003480044055
S1132440000010002200000034800440400000001E
S11324502300000038800440000010002800000021
S1132460000000000000000000B51648164988422C
S11324700CD0002008E01449042242438958114A30
S113248004234343D150401C3028F4D30D480F4952
S113249008600F490F4A1048801A03E013780B7044
S11324A0521C491C0300581E002BF7D10B490C4841
S11324B0401A02E000220A70491C0200501E002A41
S11324C0F8D100BD00FEFF1F0000000008ED00E091
S11324D00000002000230000C0230000C0000020F2
S11324E027010020433A5C64206469736B5C776F56
S11324F0726B5C70726F6A6563745C73646B5C6D41
S113250063752D73646B5C617070735C7468657261
S11325106D6973746F725F64656D6F5C6961725C21
S11325206672646D6B6C30337A34386D5C2E2E5C5D
S11325302E2E5C2E2E5C2E2E5C706C6174666F7277
S11325406D5C68616C5C706F72745C66736C5F70F8
S11325506F72745F68616C2E6800000000B51348E8
S11325600078000705D511480078082101430F4879
S1132570017000200E490860802040020D49086067
S113258002200D49087080200C49087000200C4975
S1132590087001200B49087002200B4908700B4891
S11325A000780C210842FAD100BD000002D0074097
S11325B0008104404480044008400640184006401E
S11325C000500640014006400040064006400640D8
S11325D0433A5C64206469736B5C776F726B5C7004
S11325E0726F6A6563745C73646B5C6D63752D7381
S11325F0646B5C6C69625C6961725C4B4C30335A2D
S1132600345C2E2E5C2E2E5C2E2E5C706C617466F7
S11326106F726D5C647269766572735C696E746501
S113262072727570745C66736C5F696E74657272D5
S11326307570745F6D616E616765722E680000006D
S1132640433A5C64206469736B5C776F726B5C7093
S1132650726F6A6563745C73646B5C6D63752D7310
S1132660646B5C6C69625C6961725C4B4C30335ABC
S1132670345C2E2E5C2E2E5C2E2E5C706C61746687
S11326806F726D5C647269766572735C696E746591
S113269072727570745C66736C5F696E7465727265
S11326A07570745F6D616E616765722E68000000FD
S11326B010B50400022C07D3FF22C6321349144874
S11326C0FEF72DFBFEF72AFB0020C043114904222C
S11326D054430959A031086010BD80B50E48006804
S11326E0002802D00C48006880470020FFF7E0FF74
S11326F001BD80B508484068002802D006484068FB
S113270080470120FFF7D4FF01BD00008C280000A2
S1132710FC2C0000EC2E00001C010020433A5C64F9
S1132720206469736B5C776F726B5C70726F6A653F
S113273063745C73646B5C6D63752D73646B5C6C48
S113274069625C6961725C4B4C30335A345C2E2E86
S11327505C2E2E5C2E2E5C706C6174666F726D5CE8
S113276068616C5C6164635C66736C5F6164635F25
S113277068616C2E68000000433A5C6420646973ED
S11327806B5C776F726B5C70726F6A6563745C7399
S1132790646B5C6D63752D73646B5C6C69625C69FE
S11327A061725C4B4C30335A345C2E2E5C2E2E5CA2
S11327B02E2E5C706C6174666F726D5C68616C5C0B
S11327C0706F72745C66736C5F706F72745F686153
S11327D06C2E6800433A5C64206469736B5C776FA9
S11327E0726B5C70726F6A6563745C73646B5C6D4E
S11327F063752D73646B5C6C69625C6961725C4BBC
S11328004C30335A345C2E2E5C2E2E5C2E2E5C7093
S11328106C6174666F726D5C68616C5C6770696F23
S11328205C66736C5F6770696F5F68616C2E6800CB
S1132830433A5C64206469736B5C776F726B5C70A1
S1132840726F6A6563745C73646B5C6D63752D731E
S1132850646B5C706C6174666F726D5C68616C5CF7
S11328606C70756172745C66736C5F756172745FB1
S113287068616C5F636F6D6D6F6E5F636F6E6669C9
S11328806775726174696F6E732E6300433A5C649A
S1132890206469736B5C776F726B5C70726F6A65CE
S11328A063745C73646B5C6D63752D73646B5C6CD7
S11328B069625C6961725C4B4C30335A345C2E2E15
S11328C05C2E2E5C2E2E5C706C6174666F726D5C77
S11328D068616C5C706F72745C66736C5F706F724D
S11328E0745F68616C2E6800433A5C6420646973A9
S11328F06B5C776F726B5C70726F6A6563745C7328
S1132900646B5C6D63752D73646B5C706C61746671
S11329106F726D5C647269766572735C636C6F630D
S11329206B5C7372635C66736C5F636C6F636B5F29
S11329306D616E616765722E63000000433A5C64EA
S1132940206469736B5C776F726B5C70726F6A651D
S113295063745C73646B5C6D63752D73646B5C7022
S11329606C6174666F726D5C647269766572735CB7
S11329706164635C7372635C66736C5F6164635F00
S11329806472697665722E6300000000433A5C64E9
S1132990206469736B5C776F726B5C70726F6A65CD
S11329A063745C73646B5C6D63752D73646B5C70D2
S11329B06C6174666F726D5C68616C5C73696D5C8C
S11329C066736C5F73696D5F68616C2E63000000F1
S11329D0433A5C64206469736B5C776F726B5C7000
S11329E0726F6A6563745C73646B5C6D63752D737D
S11329F0646B5C706C6174666F726D5C68616C5C56
S1132A006164635C66736C5F6164635F68616C2EB0
S1132A1068000000433A5C64206469736B5C776F00
S1132A20726B5C70726F6A6563745C73646B5C6D0B
S1132A3063752D73646B5C706C6174666F726D5C2E
S1132A4068616C5C6164635C66736C5F6164635F42
S1132A5068616C2E63000000433A5C64206469730F
S1132A606B5C776F726B5C70726F6A6563745C73B6
S1132A70646B5C6D63752D73646B5C706C61746600
S1132A806F726D5C68616C5C6770696F5C66736CB7
S1132A905F6770696F5F68616C2E6800433A5C64BD
S1132AA0206469736B5C776F726B5C70726F6A65BC
S1132AB063745C73646B5C6D63752D73646B5C70C1
S1132AC06C6174666F726D5C68616C5C6770696F71
S1132AD05C66736C5F6770696F5F68616C2E63001E
S1132AE030B401210268001D002A0FD00368C31806
S1132AF0446808300C4202D04D466D1E64191D68AE
S1132B0025601B1D241D121FECD0F8E730BC704754
S1132B106972714E756D626572203C3D2046534C5E
S1132B205F464541545552455F494E5445525255AE
S1132B3050545F4952515F4D415800006972714EC3
S1132B40756D626572203C3D2046534C5F4645419D
S1132B50545552455F494E544552525550545F495D
S1132B6052515F4D4158000075617274496E73741F
S1132B70616E6365203C2048575F4C505541525468
S1132B805F494E5354414E43455F434F554E5400A5
S1132B9010B5074979441831064C7C44163404E0D6
S1132BA0081D0A68891888470100A142F8D110BDA0
S1132BB07001000090010000696E7374616E6365BA
S1132BC0203C2048575F504F52545F494E53544164
S1132BD04E43455F434F554E54000000636C6F6392
S1132BE06B4D6F64756C65203C206B53696D436C51
S1132BF06F636B4D6F64756C654D61780000000008
S1132C00636C6F636B536F75726365203C206B5309
S1132C10696D436C6F636B536F757263654D617857
S1132C2000000000636C6F636B44697669646572CD
S1132C30203C206B53696D436C6F636B4469766908
S1132C406465724D61780000696E7374616E6365CA
S1132C50203C2048575F4144435F494E5354414E02
S1132C6043455F434F554E5400000000696E737432
S1132C70616E6365203C2048575F504F52545F4952
S1132C804E5354414E43455F434F554E540000004C
S1132C90696E7374616E6365203C2048575F4750CA
S1132CA0494F5F494E5354414E43455F434F554E40
S1132CB054000000696E7374616E6365203C2048A3
S1132CC0575F4144435F494E5354414E43455F432C
S1132CD04F554E5400000000696E7374616E636555
S1132CE0203C2048575F4750494F5F494E53544159
S1132CF04E43455F434F554E54000000696E737454
S1132D00616E6365203C2048575F504F52545F49C1
S1132D104E5354414E43455F434F554E54000000BB
S1132D2083E5FFFF68000000C000002000000000F1
S1132D30B1FDFFFFC0000000C8F5FFFF0000002048
S1132D4000000000636C6F636B536F7572636520E2
S1132D503C206B436C6F636B536F757263654D619D
S1132D60780000001700000F1700000F0300000F89
S1132D700C00000F1100000F1700000F0700000FD8
S1132D800900000F67726F7570203C2048575F413F
S1132D9044435F5343316E5F434F554E540000002C
S1132DA067726F7570203C2048575F4144435F53FE
S1132DB043316E5F434F554E5400000000F00BF852
S1132DC0002801D0FFF7E4FE0020C046C046FFF70C
S1132DD0CAF800F002F80120704780B500F002F84C
S1132DE001BD000007463846FEF73EFCFBE7000045
S1132DF00248804702488047024800475D2500009A
S1132E00692400009D2E0000000001000100010063
S1132E1003010103050101031800010F30203C3DAB
S1132E20206972714E756D626572000030203C3D00
S1132E30206972714E756D62657200000600000FA4
S1132E401700000F0A00000F0C00000F1700000FFE
S1132E500900000F0700000F1100000F1700000FFA
S1132E600900000F0700000F1100000F70696E20A9
S1132E703C2033325500000070696E203C20333210
S1132E805500000070696E203C20333200000000C1
S1132E9070696E203C20333200000000C046C046FA
S1132EA0C046C046FFF78AFF80B50020FDF7D6FD77
S1132EB001BD00000090044000A004400003010094
S1132EC000000000010301000000000000F00F40BA
S1132ED040F00F400090044000A004400B00000F9D
S1132EE00700000F00F00F4040F00F400090044036
S1132EF000A0044000B0034000B00340FFF7FEFF11
S1132F00FFF7FEFFFFF7FEFFFFF7FEFFFFF7FEFFF1
S1132F10FFF7FEFFFFF7FEFFFFF7FEFFFFF7FEFFE1
S1132F20FFF7FEFFFFF7FEFFFFF7FEFFFFF7FEFFD1
S1132F30FFF7FEFFFFF7FEFFFFF7FEFFFFF7FEFFC1
S1132F40FFF7FEFFFFF7FEFFFFF7FEFFFFF7ACFF03
S1132F50FFF7FEFFFFF7FEFFFFF7FEFFFFF7FEFFA1
S1132F60FFF7FEFFFFF7FEFFFFF7FEFFFFF7FEFF91
S1132F70FFF7FEFFFFF7FEFFFFF7FEFFFFF7FEFF81
S1132F80FFF7FEFFFFF7FEFFFFF7A7FBFFF7B1FB1D
S1072F90FFF7FEFF46
S9032E9D31
